{"abi":[{"inputs":[],"stateMutability":"nonpayable","type":"constructor"},{"inputs":[],"name":"ceo","outputs":[{"internalType":"address","name":"","type":"address"}],"stateMutability":"view","type":"function"},{"inputs":[{"internalType":"uint256","name":"","type":"uint256"}],"name":"courses","outputs":[{"internalType":"address","name":"","type":"address"}],"stateMutability":"view","type":"function"},{"inputs":[{"internalType":"string","name":"_name","type":"string"}],"name":"createCourse","outputs":[],"stateMutability":"nonpayable","type":"function"},{"inputs":[],"name":"getCourse","outputs":[{"internalType":"address[]","name":"","type":"address[]"}],"stateMutability":"view","type":"function"}],"devdoc":{"kind":"dev","methods":{},"version":1},"evm":{"assembly":"    /* \"Imooc.sol\":66:543  contract CourseList {... */\n  mstore(0x40, 0x80)\n    /* \"Imooc.sol\":147:194  constructor() {... */\n  callvalue\n  dup1\n  iszero\n  tag_1\n  jumpi\n  0x00\n  dup1\n  revert\ntag_1:\n  pop\n    /* \"Imooc.sol\":177:187  msg.sender */\n  caller\n    /* \"Imooc.sol\":171:174  ceo */\n  0x00\n  dup1\n    /* \"Imooc.sol\":171:187  ceo = msg.sender */\n  0x0100\n  exp\n  dup2\n  sload\n  dup2\n  0xffffffffffffffffffffffffffffffffffffffff\n  mul\n  not\n  and\n  swap1\n  dup4\n  0xffffffffffffffffffffffffffffffffffffffff\n  and\n  mul\n  or\n  swap1\n  sstore\n  pop\n    /* \"Imooc.sol\":66:543  contract CourseList {... */\n  dataSize(sub_0)\n  dup1\n  dataOffset(sub_0)\n  0x00\n  codecopy\n  0x00\n  return\nstop\n\nsub_0: assembly {\n        /* \"Imooc.sol\":66:543  contract CourseList {... */\n      mstore(0x40, 0x80)\n      callvalue\n      dup1\n      iszero\n      tag_1\n      jumpi\n      0x00\n      dup1\n      revert\n    tag_1:\n      pop\n      jumpi(tag_2, lt(calldatasize, 0x04))\n      shr(0xe0, calldataload(0x00))\n      dup1\n      0x8a38ab2c\n      eq\n      tag_3\n      jumpi\n      dup1\n      0x8c14acd5\n      eq\n      tag_4\n      jumpi\n      dup1\n      0x908921fc\n      eq\n      tag_5\n      jumpi\n      dup1\n      0x96f979d2\n      eq\n      tag_6\n      jumpi\n    tag_2:\n      0x00\n      dup1\n      revert\n        /* \"Imooc.sol\":200:412  function createCourse(string memory _name) public {... */\n    tag_3:\n      tag_7\n      0x04\n      dup1\n      calldatasize\n      sub\n      dup2\n      add\n      swap1\n      tag_8\n      swap2\n      swap1\n      tag_9\n      jump\t// in\n    tag_8:\n      tag_10\n      jump\t// in\n    tag_7:\n      stop\n        /* \"Imooc.sol\":450:541  function getCourse() public view returns (address[] memory) {... */\n    tag_4:\n      tag_11\n      tag_12\n      jump\t// in\n    tag_11:\n      mload(0x40)\n      tag_13\n      swap2\n      swap1\n      tag_14\n      jump\t// in\n    tag_13:\n      mload(0x40)\n      dup1\n      swap2\n      sub\n      swap1\n      return\n        /* \"Imooc.sol\":92:110  address public ceo */\n    tag_5:\n      tag_15\n      tag_16\n      jump\t// in\n    tag_15:\n      mload(0x40)\n      tag_17\n      swap2\n      swap1\n      tag_18\n      jump\t// in\n    tag_17:\n      mload(0x40)\n      dup1\n      swap2\n      sub\n      swap1\n      return\n        /* \"Imooc.sol\":116:140  address[] public courses */\n    tag_6:\n      tag_19\n      0x04\n      dup1\n      calldatasize\n      sub\n      dup2\n      add\n      swap1\n      tag_20\n      swap2\n      swap1\n      tag_21\n      jump\t// in\n    tag_20:\n      tag_22\n      jump\t// in\n    tag_19:\n      mload(0x40)\n      tag_23\n      swap2\n      swap1\n      tag_18\n      jump\t// in\n    tag_23:\n      mload(0x40)\n      dup1\n      swap2\n      sub\n      swap1\n      return\n        /* \"Imooc.sol\":200:412  function createCourse(string memory _name) public {... */\n    tag_10:\n        /* \"Imooc.sol\":326:343  address newCourse */\n      0x00\n        /* \"Imooc.sol\":365:370  _name */\n      dup2\n        /* \"Imooc.sol\":354:371  new Course(_name) */\n      mload(0x40)\n      tag_25\n      swap1\n      tag_26\n      jump\t// in\n    tag_25:\n      tag_27\n      swap2\n      swap1\n      tag_28\n      jump\t// in\n    tag_27:\n      mload(0x40)\n      dup1\n      swap2\n      sub\n      swap1\n      0x00\n      create\n      dup1\n      iszero\n      dup1\n      iszero\n      tag_29\n      jumpi\n      returndatasize\n      0x00\n      dup1\n      returndatacopy\n      revert(0x00, returndatasize)\n    tag_29:\n      pop\n        /* \"Imooc.sol\":326:372  address newCourse = address(new Course(_name)) */\n      swap1\n      pop\n        /* \"Imooc.sol\":382:389  courses */\n      0x01\n        /* \"Imooc.sol\":395:404  newCourse */\n      dup2\n        /* \"Imooc.sol\":382:405  courses.push(newCourse) */\n      swap1\n      dup1\n      0x01\n      dup2\n      sload\n      add\n      dup1\n      dup3\n      sstore\n      dup1\n      swap2\n      pop\n      pop\n      0x01\n      swap1\n      sub\n      swap1\n      0x00\n      mstore\n      keccak256(0x00, 0x20)\n      add\n      0x00\n      swap1\n      swap2\n      swap1\n      swap2\n      swap1\n      swap2\n      0x0100\n      exp\n      dup2\n      sload\n      dup2\n      0xffffffffffffffffffffffffffffffffffffffff\n      mul\n      not\n      and\n      swap1\n      dup4\n      0xffffffffffffffffffffffffffffffffffffffff\n      and\n      mul\n      or\n      swap1\n      sstore\n      pop\n        /* \"Imooc.sol\":250:412  {... */\n      pop\n        /* \"Imooc.sol\":200:412  function createCourse(string memory _name) public {... */\n      pop\n      jump\t// out\n        /* \"Imooc.sol\":450:541  function getCourse() public view returns (address[] memory) {... */\n    tag_12:\n        /* \"Imooc.sol\":492:508  address[] memory */\n      0x60\n        /* \"Imooc.sol\":527:534  courses */\n      0x01\n        /* \"Imooc.sol\":520:534  return courses */\n      dup1\n      sload\n      dup1\n      0x20\n      mul\n      0x20\n      add\n      mload(0x40)\n      swap1\n      dup2\n      add\n      0x40\n      mstore\n      dup1\n      swap3\n      swap2\n      swap1\n      dup2\n      dup2\n      mstore\n      0x20\n      add\n      dup3\n      dup1\n      sload\n      dup1\n      iszero\n      tag_32\n      jumpi\n      0x20\n      mul\n      dup3\n      add\n      swap2\n      swap1\n      0x00\n      mstore\n      keccak256(0x00, 0x20)\n      swap1\n    tag_33:\n      dup2\n      0x00\n      swap1\n      sload\n      swap1\n      0x0100\n      exp\n      swap1\n      div\n      0xffffffffffffffffffffffffffffffffffffffff\n      and\n      0xffffffffffffffffffffffffffffffffffffffff\n      and\n      dup2\n      mstore\n      0x20\n      add\n      swap1\n      0x01\n      add\n      swap1\n      dup1\n      dup4\n      gt\n      tag_33\n      jumpi\n    tag_32:\n      pop\n      pop\n      pop\n      pop\n      pop\n      swap1\n      pop\n        /* \"Imooc.sol\":450:541  function getCourse() public view returns (address[] memory) {... */\n      swap1\n      jump\t// out\n        /* \"Imooc.sol\":92:110  address public ceo */\n    tag_16:\n      0x00\n      dup1\n      sload\n      swap1\n      0x0100\n      exp\n      swap1\n      div\n      0xffffffffffffffffffffffffffffffffffffffff\n      and\n      dup2\n      jump\t// out\n        /* \"Imooc.sol\":116:140  address[] public courses */\n    tag_22:\n      0x01\n      dup2\n      dup2\n      sload\n      dup2\n      lt\n      tag_34\n      jumpi\n      0x00\n      dup1\n      revert\n    tag_34:\n      swap1\n      0x00\n      mstore\n      keccak256(0x00, 0x20)\n      add\n      0x00\n      swap2\n      pop\n      sload\n      swap1\n      0x0100\n      exp\n      swap1\n      div\n      0xffffffffffffffffffffffffffffffffffffffff\n      and\n      dup2\n      jump\t// out\n    tag_26:\n      dataSize(sub_0)\n      dup1\n      dataOffset(sub_0)\n      dup4\n      codecopy\n      add\n      swap1\n      jump\t// out\n        /* \"#utility.yul\":7:82   */\n    tag_36:\n        /* \"#utility.yul\":40:46   */\n      0x00\n        /* \"#utility.yul\":73:75   */\n      0x40\n        /* \"#utility.yul\":67:76   */\n      mload\n        /* \"#utility.yul\":57:76   */\n      swap1\n      pop\n        /* \"#utility.yul\":7:82   */\n      swap1\n      jump\t// out\n        /* \"#utility.yul\":88:205   */\n    tag_37:\n        /* \"#utility.yul\":197:198   */\n      0x00\n        /* \"#utility.yul\":194:195   */\n      dup1\n        /* \"#utility.yul\":187:199   */\n      revert\n        /* \"#utility.yul\":211:328   */\n    tag_38:\n        /* \"#utility.yul\":320:321   */\n      0x00\n        /* \"#utility.yul\":317:318   */\n      dup1\n        /* \"#utility.yul\":310:322   */\n      revert\n        /* \"#utility.yul\":334:451   */\n    tag_39:\n        /* \"#utility.yul\":443:444   */\n      0x00\n        /* \"#utility.yul\":440:441   */\n      dup1\n        /* \"#utility.yul\":433:445   */\n      revert\n        /* \"#utility.yul\":457:574   */\n    tag_40:\n        /* \"#utility.yul\":566:567   */\n      0x00\n        /* \"#utility.yul\":563:564   */\n      dup1\n        /* \"#utility.yul\":556:568   */\n      revert\n        /* \"#utility.yul\":580:682   */\n    tag_41:\n        /* \"#utility.yul\":621:627   */\n      0x00\n        /* \"#utility.yul\":672:674   */\n      0x1f\n        /* \"#utility.yul\":668:675   */\n      not\n        /* \"#utility.yul\":663:665   */\n      0x1f\n        /* \"#utility.yul\":656:661   */\n      dup4\n        /* \"#utility.yul\":652:666   */\n      add\n        /* \"#utility.yul\":648:676   */\n      and\n        /* \"#utility.yul\":638:676   */\n      swap1\n      pop\n        /* \"#utility.yul\":580:682   */\n      swap2\n      swap1\n      pop\n      jump\t// out\n        /* \"#utility.yul\":688:868   */\n    tag_42:\n        /* \"#utility.yul\":736:813   */\n      0x4e487b7100000000000000000000000000000000000000000000000000000000\n        /* \"#utility.yul\":733:734   */\n      0x00\n        /* \"#utility.yul\":726:814   */\n      mstore\n        /* \"#utility.yul\":833:837   */\n      0x41\n        /* \"#utility.yul\":830:831   */\n      0x04\n        /* \"#utility.yul\":823:838   */\n      mstore\n        /* \"#utility.yul\":857:861   */\n      0x24\n        /* \"#utility.yul\":854:855   */\n      0x00\n        /* \"#utility.yul\":847:862   */\n      revert\n        /* \"#utility.yul\":874:1155   */\n    tag_43:\n        /* \"#utility.yul\":957:984   */\n      tag_75\n        /* \"#utility.yul\":979:983   */\n      dup3\n        /* \"#utility.yul\":957:984   */\n      tag_41\n      jump\t// in\n    tag_75:\n        /* \"#utility.yul\":949:955   */\n      dup2\n        /* \"#utility.yul\":945:985   */\n      add\n        /* \"#utility.yul\":1087:1093   */\n      dup2\n        /* \"#utility.yul\":1075:1085   */\n      dup2\n        /* \"#utility.yul\":1072:1094   */\n      lt\n        /* \"#utility.yul\":1051:1069   */\n      0xffffffffffffffff\n        /* \"#utility.yul\":1039:1049   */\n      dup3\n        /* \"#utility.yul\":1036:1070   */\n      gt\n        /* \"#utility.yul\":1033:1095   */\n      or\n        /* \"#utility.yul\":1030:1118   */\n      iszero\n      tag_76\n      jumpi\n        /* \"#utility.yul\":1098:1116   */\n      tag_77\n      tag_42\n      jump\t// in\n    tag_77:\n        /* \"#utility.yul\":1030:1118   */\n    tag_76:\n        /* \"#utility.yul\":1138:1148   */\n      dup1\n        /* \"#utility.yul\":1134:1136   */\n      0x40\n        /* \"#utility.yul\":1127:1149   */\n      mstore\n        /* \"#utility.yul\":917:1155   */\n      pop\n        /* \"#utility.yul\":874:1155   */\n      pop\n      pop\n      jump\t// out\n        /* \"#utility.yul\":1161:1290   */\n    tag_44:\n        /* \"#utility.yul\":1195:1201   */\n      0x00\n        /* \"#utility.yul\":1222:1242   */\n      tag_79\n      tag_36\n      jump\t// in\n    tag_79:\n        /* \"#utility.yul\":1212:1242   */\n      swap1\n      pop\n        /* \"#utility.yul\":1251:1284   */\n      tag_80\n        /* \"#utility.yul\":1279:1283   */\n      dup3\n        /* \"#utility.yul\":1271:1277   */\n      dup3\n        /* \"#utility.yul\":1251:1284   */\n      tag_43\n      jump\t// in\n    tag_80:\n        /* \"#utility.yul\":1161:1290   */\n      swap2\n      swap1\n      pop\n      jump\t// out\n        /* \"#utility.yul\":1296:1604   */\n    tag_45:\n        /* \"#utility.yul\":1358:1362   */\n      0x00\n        /* \"#utility.yul\":1448:1466   */\n      0xffffffffffffffff\n        /* \"#utility.yul\":1440:1446   */\n      dup3\n        /* \"#utility.yul\":1437:1467   */\n      gt\n        /* \"#utility.yul\":1434:1490   */\n      iszero\n      tag_82\n      jumpi\n        /* \"#utility.yul\":1470:1488   */\n      tag_83\n      tag_42\n      jump\t// in\n    tag_83:\n        /* \"#utility.yul\":1434:1490   */\n    tag_82:\n        /* \"#utility.yul\":1508:1537   */\n      tag_84\n        /* \"#utility.yul\":1530:1536   */\n      dup3\n        /* \"#utility.yul\":1508:1537   */\n      tag_41\n      jump\t// in\n    tag_84:\n        /* \"#utility.yul\":1500:1537   */\n      swap1\n      pop\n        /* \"#utility.yul\":1592:1596   */\n      0x20\n        /* \"#utility.yul\":1586:1590   */\n      dup2\n        /* \"#utility.yul\":1582:1597   */\n      add\n        /* \"#utility.yul\":1574:1597   */\n      swap1\n      pop\n        /* \"#utility.yul\":1296:1604   */\n      swap2\n      swap1\n      pop\n      jump\t// out\n        /* \"#utility.yul\":1610:1756   */\n    tag_46:\n        /* \"#utility.yul\":1707:1713   */\n      dup3\n        /* \"#utility.yul\":1702:1705   */\n      dup2\n        /* \"#utility.yul\":1697:1700   */\n      dup4\n        /* \"#utility.yul\":1684:1714   */\n      calldatacopy\n        /* \"#utility.yul\":1748:1749   */\n      0x00\n        /* \"#utility.yul\":1739:1745   */\n      dup4\n        /* \"#utility.yul\":1734:1737   */\n      dup4\n        /* \"#utility.yul\":1730:1746   */\n      add\n        /* \"#utility.yul\":1723:1750   */\n      mstore\n        /* \"#utility.yul\":1610:1756   */\n      pop\n      pop\n      pop\n      jump\t// out\n        /* \"#utility.yul\":1762:2187   */\n    tag_47:\n        /* \"#utility.yul\":1840:1845   */\n      0x00\n        /* \"#utility.yul\":1865:1931   */\n      tag_87\n        /* \"#utility.yul\":1881:1930   */\n      tag_88\n        /* \"#utility.yul\":1923:1929   */\n      dup5\n        /* \"#utility.yul\":1881:1930   */\n      tag_45\n      jump\t// in\n    tag_88:\n        /* \"#utility.yul\":1865:1931   */\n      tag_44\n      jump\t// in\n    tag_87:\n        /* \"#utility.yul\":1856:1931   */\n      swap1\n      pop\n        /* \"#utility.yul\":1954:1960   */\n      dup3\n        /* \"#utility.yul\":1947:1952   */\n      dup2\n        /* \"#utility.yul\":1940:1961   */\n      mstore\n        /* \"#utility.yul\":1992:1996   */\n      0x20\n        /* \"#utility.yul\":1985:1990   */\n      dup2\n        /* \"#utility.yul\":1981:1997   */\n      add\n        /* \"#utility.yul\":2030:2033   */\n      dup5\n        /* \"#utility.yul\":2021:2027   */\n      dup5\n        /* \"#utility.yul\":2016:2019   */\n      dup5\n        /* \"#utility.yul\":2012:2028   */\n      add\n        /* \"#utility.yul\":2009:2034   */\n      gt\n        /* \"#utility.yul\":2006:2118   */\n      iszero\n      tag_89\n      jumpi\n        /* \"#utility.yul\":2037:2116   */\n      tag_90\n      tag_40\n      jump\t// in\n    tag_90:\n        /* \"#utility.yul\":2006:2118   */\n    tag_89:\n        /* \"#utility.yul\":2127:2181   */\n      tag_91\n        /* \"#utility.yul\":2174:2180   */\n      dup5\n        /* \"#utility.yul\":2169:2172   */\n      dup3\n        /* \"#utility.yul\":2164:2167   */\n      dup6\n        /* \"#utility.yul\":2127:2181   */\n      tag_46\n      jump\t// in\n    tag_91:\n        /* \"#utility.yul\":1846:2187   */\n      pop\n        /* \"#utility.yul\":1762:2187   */\n      swap4\n      swap3\n      pop\n      pop\n      pop\n      jump\t// out\n        /* \"#utility.yul\":2207:2547   */\n    tag_48:\n        /* \"#utility.yul\":2263:2268   */\n      0x00\n        /* \"#utility.yul\":2312:2315   */\n      dup3\n        /* \"#utility.yul\":2305:2309   */\n      0x1f\n        /* \"#utility.yul\":2297:2303   */\n      dup4\n        /* \"#utility.yul\":2293:2310   */\n      add\n        /* \"#utility.yul\":2289:2316   */\n      slt\n        /* \"#utility.yul\":2279:2401   */\n      tag_93\n      jumpi\n        /* \"#utility.yul\":2320:2399   */\n      tag_94\n      tag_39\n      jump\t// in\n    tag_94:\n        /* \"#utility.yul\":2279:2401   */\n    tag_93:\n        /* \"#utility.yul\":2437:2443   */\n      dup2\n        /* \"#utility.yul\":2424:2444   */\n      calldataload\n        /* \"#utility.yul\":2462:2541   */\n      tag_95\n        /* \"#utility.yul\":2537:2540   */\n      dup5\n        /* \"#utility.yul\":2529:2535   */\n      dup3\n        /* \"#utility.yul\":2522:2526   */\n      0x20\n        /* \"#utility.yul\":2514:2520   */\n      dup7\n        /* \"#utility.yul\":2510:2527   */\n      add\n        /* \"#utility.yul\":2462:2541   */\n      tag_47\n      jump\t// in\n    tag_95:\n        /* \"#utility.yul\":2453:2541   */\n      swap2\n      pop\n        /* \"#utility.yul\":2269:2547   */\n      pop\n        /* \"#utility.yul\":2207:2547   */\n      swap3\n      swap2\n      pop\n      pop\n      jump\t// out\n        /* \"#utility.yul\":2553:3062   */\n    tag_9:\n        /* \"#utility.yul\":2622:2628   */\n      0x00\n        /* \"#utility.yul\":2671:2673   */\n      0x20\n        /* \"#utility.yul\":2659:2668   */\n      dup3\n        /* \"#utility.yul\":2650:2657   */\n      dup5\n        /* \"#utility.yul\":2646:2669   */\n      sub\n        /* \"#utility.yul\":2642:2674   */\n      slt\n        /* \"#utility.yul\":2639:2758   */\n      iszero\n      tag_97\n      jumpi\n        /* \"#utility.yul\":2677:2756   */\n      tag_98\n      tag_37\n      jump\t// in\n    tag_98:\n        /* \"#utility.yul\":2639:2758   */\n    tag_97:\n        /* \"#utility.yul\":2825:2826   */\n      0x00\n        /* \"#utility.yul\":2814:2823   */\n      dup3\n        /* \"#utility.yul\":2810:2827   */\n      add\n        /* \"#utility.yul\":2797:2828   */\n      calldataload\n        /* \"#utility.yul\":2855:2873   */\n      0xffffffffffffffff\n        /* \"#utility.yul\":2847:2853   */\n      dup2\n        /* \"#utility.yul\":2844:2874   */\n      gt\n        /* \"#utility.yul\":2841:2958   */\n      iszero\n      tag_99\n      jumpi\n        /* \"#utility.yul\":2877:2956   */\n      tag_100\n      tag_38\n      jump\t// in\n    tag_100:\n        /* \"#utility.yul\":2841:2958   */\n    tag_99:\n        /* \"#utility.yul\":2982:3045   */\n      tag_101\n        /* \"#utility.yul\":3037:3044   */\n      dup5\n        /* \"#utility.yul\":3028:3034   */\n      dup3\n        /* \"#utility.yul\":3017:3026   */\n      dup6\n        /* \"#utility.yul\":3013:3035   */\n      add\n        /* \"#utility.yul\":2982:3045   */\n      tag_48\n      jump\t// in\n    tag_101:\n        /* \"#utility.yul\":2972:3045   */\n      swap2\n      pop\n        /* \"#utility.yul\":2768:3055   */\n      pop\n        /* \"#utility.yul\":2553:3062   */\n      swap3\n      swap2\n      pop\n      pop\n      jump\t// out\n        /* \"#utility.yul\":3068:3182   */\n    tag_49:\n        /* \"#utility.yul\":3135:3141   */\n      0x00\n        /* \"#utility.yul\":3169:3174   */\n      dup2\n        /* \"#utility.yul\":3163:3175   */\n      mload\n        /* \"#utility.yul\":3153:3175   */\n      swap1\n      pop\n        /* \"#utility.yul\":3068:3182   */\n      swap2\n      swap1\n      pop\n      jump\t// out\n        /* \"#utility.yul\":3188:3372   */\n    tag_50:\n        /* \"#utility.yul\":3287:3298   */\n      0x00\n        /* \"#utility.yul\":3321:3327   */\n      dup3\n        /* \"#utility.yul\":3316:3319   */\n      dup3\n        /* \"#utility.yul\":3309:3328   */\n      mstore\n        /* \"#utility.yul\":3361:3365   */\n      0x20\n        /* \"#utility.yul\":3356:3359   */\n      dup3\n        /* \"#utility.yul\":3352:3366   */\n      add\n        /* \"#utility.yul\":3337:3366   */\n      swap1\n      pop\n        /* \"#utility.yul\":3188:3372   */\n      swap3\n      swap2\n      pop\n      pop\n      jump\t// out\n        /* \"#utility.yul\":3378:3510   */\n    tag_51:\n        /* \"#utility.yul\":3445:3449   */\n      0x00\n        /* \"#utility.yul\":3468:3471   */\n      dup2\n        /* \"#utility.yul\":3460:3471   */\n      swap1\n      pop\n        /* \"#utility.yul\":3498:3502   */\n      0x20\n        /* \"#utility.yul\":3493:3496   */\n      dup3\n        /* \"#utility.yul\":3489:3503   */\n      add\n        /* \"#utility.yul\":3481:3503   */\n      swap1\n      pop\n        /* \"#utility.yul\":3378:3510   */\n      swap2\n      swap1\n      pop\n      jump\t// out\n        /* \"#utility.yul\":3516:3642   */\n    tag_52:\n        /* \"#utility.yul\":3553:3560   */\n      0x00\n        /* \"#utility.yul\":3593:3635   */\n      0xffffffffffffffffffffffffffffffffffffffff\n        /* \"#utility.yul\":3586:3591   */\n      dup3\n        /* \"#utility.yul\":3582:3636   */\n      and\n        /* \"#utility.yul\":3571:3636   */\n      swap1\n      pop\n        /* \"#utility.yul\":3516:3642   */\n      swap2\n      swap1\n      pop\n      jump\t// out\n        /* \"#utility.yul\":3648:3744   */\n    tag_53:\n        /* \"#utility.yul\":3685:3692   */\n      0x00\n        /* \"#utility.yul\":3714:3738   */\n      tag_107\n        /* \"#utility.yul\":3732:3737   */\n      dup3\n        /* \"#utility.yul\":3714:3738   */\n      tag_52\n      jump\t// in\n    tag_107:\n        /* \"#utility.yul\":3703:3738   */\n      swap1\n      pop\n        /* \"#utility.yul\":3648:3744   */\n      swap2\n      swap1\n      pop\n      jump\t// out\n        /* \"#utility.yul\":3750:3858   */\n    tag_54:\n        /* \"#utility.yul\":3827:3851   */\n      tag_109\n        /* \"#utility.yul\":3845:3850   */\n      dup2\n        /* \"#utility.yul\":3827:3851   */\n      tag_53\n      jump\t// in\n    tag_109:\n        /* \"#utility.yul\":3822:3825   */\n      dup3\n        /* \"#utility.yul\":3815:3852   */\n      mstore\n        /* \"#utility.yul\":3750:3858   */\n      pop\n      pop\n      jump\t// out\n        /* \"#utility.yul\":3864:4043   */\n    tag_55:\n        /* \"#utility.yul\":3933:3943   */\n      0x00\n        /* \"#utility.yul\":3954:4000   */\n      tag_111\n        /* \"#utility.yul\":3996:3999   */\n      dup4\n        /* \"#utility.yul\":3988:3994   */\n      dup4\n        /* \"#utility.yul\":3954:4000   */\n      tag_54\n      jump\t// in\n    tag_111:\n        /* \"#utility.yul\":4032:4036   */\n      0x20\n        /* \"#utility.yul\":4027:4030   */\n      dup4\n        /* \"#utility.yul\":4023:4037   */\n      add\n        /* \"#utility.yul\":4009:4037   */\n      swap1\n      pop\n        /* \"#utility.yul\":3864:4043   */\n      swap3\n      swap2\n      pop\n      pop\n      jump\t// out\n        /* \"#utility.yul\":4049:4162   */\n    tag_56:\n        /* \"#utility.yul\":4119:4123   */\n      0x00\n        /* \"#utility.yul\":4151:4155   */\n      0x20\n        /* \"#utility.yul\":4146:4149   */\n      dup3\n        /* \"#utility.yul\":4142:4156   */\n      add\n        /* \"#utility.yul\":4134:4156   */\n      swap1\n      pop\n        /* \"#utility.yul\":4049:4162   */\n      swap2\n      swap1\n      pop\n      jump\t// out\n        /* \"#utility.yul\":4198:4930   */\n    tag_57:\n        /* \"#utility.yul\":4317:4320   */\n      0x00\n        /* \"#utility.yul\":4346:4400   */\n      tag_114\n        /* \"#utility.yul\":4394:4399   */\n      dup3\n        /* \"#utility.yul\":4346:4400   */\n      tag_49\n      jump\t// in\n    tag_114:\n        /* \"#utility.yul\":4416:4502   */\n      tag_115\n        /* \"#utility.yul\":4495:4501   */\n      dup2\n        /* \"#utility.yul\":4490:4493   */\n      dup6\n        /* \"#utility.yul\":4416:4502   */\n      tag_50\n      jump\t// in\n    tag_115:\n        /* \"#utility.yul\":4409:4502   */\n      swap4\n      pop\n        /* \"#utility.yul\":4526:4582   */\n      tag_116\n        /* \"#utility.yul\":4576:4581   */\n      dup4\n        /* \"#utility.yul\":4526:4582   */\n      tag_51\n      jump\t// in\n    tag_116:\n        /* \"#utility.yul\":4605:4612   */\n      dup1\n        /* \"#utility.yul\":4636:4637   */\n      0x00\n        /* \"#utility.yul\":4621:4905   */\n    tag_117:\n        /* \"#utility.yul\":4646:4652   */\n      dup4\n        /* \"#utility.yul\":4643:4644   */\n      dup2\n        /* \"#utility.yul\":4640:4653   */\n      lt\n        /* \"#utility.yul\":4621:4905   */\n      iszero\n      tag_119\n      jumpi\n        /* \"#utility.yul\":4722:4728   */\n      dup2\n        /* \"#utility.yul\":4716:4729   */\n      mload\n        /* \"#utility.yul\":4749:4812   */\n      tag_120\n        /* \"#utility.yul\":4808:4811   */\n      dup9\n        /* \"#utility.yul\":4793:4806   */\n      dup3\n        /* \"#utility.yul\":4749:4812   */\n      tag_55\n      jump\t// in\n    tag_120:\n        /* \"#utility.yul\":4742:4812   */\n      swap8\n      pop\n        /* \"#utility.yul\":4835:4895   */\n      tag_121\n        /* \"#utility.yul\":4888:4894   */\n      dup4\n        /* \"#utility.yul\":4835:4895   */\n      tag_56\n      jump\t// in\n    tag_121:\n        /* \"#utility.yul\":4825:4895   */\n      swap3\n      pop\n        /* \"#utility.yul\":4681:4905   */\n      pop\n        /* \"#utility.yul\":4668:4669   */\n      0x01\n        /* \"#utility.yul\":4665:4666   */\n      dup2\n        /* \"#utility.yul\":4661:4670   */\n      add\n        /* \"#utility.yul\":4656:4670   */\n      swap1\n      pop\n        /* \"#utility.yul\":4621:4905   */\n      jump(tag_117)\n    tag_119:\n        /* \"#utility.yul\":4625:4639   */\n      pop\n        /* \"#utility.yul\":4921:4924   */\n      dup6\n        /* \"#utility.yul\":4914:4924   */\n      swap4\n      pop\n        /* \"#utility.yul\":4322:4930   */\n      pop\n      pop\n      pop\n        /* \"#utility.yul\":4198:4930   */\n      swap3\n      swap2\n      pop\n      pop\n      jump\t// out\n        /* \"#utility.yul\":4936:5309   */\n    tag_14:\n        /* \"#utility.yul\":5079:5083   */\n      0x00\n        /* \"#utility.yul\":5117:5119   */\n      0x20\n        /* \"#utility.yul\":5106:5115   */\n      dup3\n        /* \"#utility.yul\":5102:5120   */\n      add\n        /* \"#utility.yul\":5094:5120   */\n      swap1\n      pop\n        /* \"#utility.yul\":5166:5175   */\n      dup2\n        /* \"#utility.yul\":5160:5164   */\n      dup2\n        /* \"#utility.yul\":5156:5176   */\n      sub\n        /* \"#utility.yul\":5152:5153   */\n      0x00\n        /* \"#utility.yul\":5141:5150   */\n      dup4\n        /* \"#utility.yul\":5137:5154   */\n      add\n        /* \"#utility.yul\":5130:5177   */\n      mstore\n        /* \"#utility.yul\":5194:5302   */\n      tag_123\n        /* \"#utility.yul\":5297:5301   */\n      dup2\n        /* \"#utility.yul\":5288:5294   */\n      dup5\n        /* \"#utility.yul\":5194:5302   */\n      tag_57\n      jump\t// in\n    tag_123:\n        /* \"#utility.yul\":5186:5302   */\n      swap1\n      pop\n        /* \"#utility.yul\":4936:5309   */\n      swap3\n      swap2\n      pop\n      pop\n      jump\t// out\n        /* \"#utility.yul\":5315:5433   */\n    tag_58:\n        /* \"#utility.yul\":5402:5426   */\n      tag_125\n        /* \"#utility.yul\":5420:5425   */\n      dup2\n        /* \"#utility.yul\":5402:5426   */\n      tag_53\n      jump\t// in\n    tag_125:\n        /* \"#utility.yul\":5397:5400   */\n      dup3\n        /* \"#utility.yul\":5390:5427   */\n      mstore\n        /* \"#utility.yul\":5315:5433   */\n      pop\n      pop\n      jump\t// out\n        /* \"#utility.yul\":5439:5661   */\n    tag_18:\n        /* \"#utility.yul\":5532:5536   */\n      0x00\n        /* \"#utility.yul\":5570:5572   */\n      0x20\n        /* \"#utility.yul\":5559:5568   */\n      dup3\n        /* \"#utility.yul\":5555:5573   */\n      add\n        /* \"#utility.yul\":5547:5573   */\n      swap1\n      pop\n        /* \"#utility.yul\":5583:5654   */\n      tag_127\n        /* \"#utility.yul\":5651:5652   */\n      0x00\n        /* \"#utility.yul\":5640:5649   */\n      dup4\n        /* \"#utility.yul\":5636:5653   */\n      add\n        /* \"#utility.yul\":5627:5633   */\n      dup5\n        /* \"#utility.yul\":5583:5654   */\n      tag_58\n      jump\t// in\n    tag_127:\n        /* \"#utility.yul\":5439:5661   */\n      swap3\n      swap2\n      pop\n      pop\n      jump\t// out\n        /* \"#utility.yul\":5667:5744   */\n    tag_59:\n        /* \"#utility.yul\":5704:5711   */\n      0x00\n        /* \"#utility.yul\":5733:5738   */\n      dup2\n        /* \"#utility.yul\":5722:5738   */\n      swap1\n      pop\n        /* \"#utility.yul\":5667:5744   */\n      swap2\n      swap1\n      pop\n      jump\t// out\n        /* \"#utility.yul\":5750:5872   */\n    tag_60:\n        /* \"#utility.yul\":5823:5847   */\n      tag_130\n        /* \"#utility.yul\":5841:5846   */\n      dup2\n        /* \"#utility.yul\":5823:5847   */\n      tag_59\n      jump\t// in\n    tag_130:\n        /* \"#utility.yul\":5816:5821   */\n      dup2\n        /* \"#utility.yul\":5813:5848   */\n      eq\n        /* \"#utility.yul\":5803:5866   */\n      tag_131\n      jumpi\n        /* \"#utility.yul\":5862:5863   */\n      0x00\n        /* \"#utility.yul\":5859:5860   */\n      dup1\n        /* \"#utility.yul\":5852:5864   */\n      revert\n        /* \"#utility.yul\":5803:5866   */\n    tag_131:\n        /* \"#utility.yul\":5750:5872   */\n      pop\n      jump\t// out\n        /* \"#utility.yul\":5878:6017   */\n    tag_61:\n        /* \"#utility.yul\":5924:5929   */\n      0x00\n        /* \"#utility.yul\":5962:5968   */\n      dup2\n        /* \"#utility.yul\":5949:5969   */\n      calldataload\n        /* \"#utility.yul\":5940:5969   */\n      swap1\n      pop\n        /* \"#utility.yul\":5978:6011   */\n      tag_133\n        /* \"#utility.yul\":6005:6010   */\n      dup2\n        /* \"#utility.yul\":5978:6011   */\n      tag_60\n      jump\t// in\n    tag_133:\n        /* \"#utility.yul\":5878:6017   */\n      swap3\n      swap2\n      pop\n      pop\n      jump\t// out\n        /* \"#utility.yul\":6023:6352   */\n    tag_21:\n        /* \"#utility.yul\":6082:6088   */\n      0x00\n        /* \"#utility.yul\":6131:6133   */\n      0x20\n        /* \"#utility.yul\":6119:6128   */\n      dup3\n        /* \"#utility.yul\":6110:6117   */\n      dup5\n        /* \"#utility.yul\":6106:6129   */\n      sub\n        /* \"#utility.yul\":6102:6134   */\n      slt\n        /* \"#utility.yul\":6099:6218   */\n      iszero\n      tag_135\n      jumpi\n        /* \"#utility.yul\":6137:6216   */\n      tag_136\n      tag_37\n      jump\t// in\n    tag_136:\n        /* \"#utility.yul\":6099:6218   */\n    tag_135:\n        /* \"#utility.yul\":6257:6258   */\n      0x00\n        /* \"#utility.yul\":6282:6335   */\n      tag_137\n        /* \"#utility.yul\":6327:6334   */\n      dup5\n        /* \"#utility.yul\":6318:6324   */\n      dup3\n        /* \"#utility.yul\":6307:6316   */\n      dup6\n        /* \"#utility.yul\":6303:6325   */\n      add\n        /* \"#utility.yul\":6282:6335   */\n      tag_61\n      jump\t// in\n    tag_137:\n        /* \"#utility.yul\":6272:6335   */\n      swap2\n      pop\n        /* \"#utility.yul\":6228:6345   */\n      pop\n        /* \"#utility.yul\":6023:6352   */\n      swap3\n      swap2\n      pop\n      pop\n      jump\t// out\n        /* \"#utility.yul\":6358:6457   */\n    tag_62:\n        /* \"#utility.yul\":6410:6416   */\n      0x00\n        /* \"#utility.yul\":6444:6449   */\n      dup2\n        /* \"#utility.yul\":6438:6450   */\n      mload\n        /* \"#utility.yul\":6428:6450   */\n      swap1\n      pop\n        /* \"#utility.yul\":6358:6457   */\n      swap2\n      swap1\n      pop\n      jump\t// out\n        /* \"#utility.yul\":6463:6632   */\n    tag_63:\n        /* \"#utility.yul\":6547:6558   */\n      0x00\n        /* \"#utility.yul\":6581:6587   */\n      dup3\n        /* \"#utility.yul\":6576:6579   */\n      dup3\n        /* \"#utility.yul\":6569:6588   */\n      mstore\n        /* \"#utility.yul\":6621:6625   */\n      0x20\n        /* \"#utility.yul\":6616:6619   */\n      dup3\n        /* \"#utility.yul\":6612:6626   */\n      add\n        /* \"#utility.yul\":6597:6626   */\n      swap1\n      pop\n        /* \"#utility.yul\":6463:6632   */\n      swap3\n      swap2\n      pop\n      pop\n      jump\t// out\n        /* \"#utility.yul\":6638:6884   */\n    tag_64:\n        /* \"#utility.yul\":6719:6720   */\n      0x00\n        /* \"#utility.yul\":6729:6842   */\n    tag_141:\n        /* \"#utility.yul\":6743:6749   */\n      dup4\n        /* \"#utility.yul\":6740:6741   */\n      dup2\n        /* \"#utility.yul\":6737:6750   */\n      lt\n        /* \"#utility.yul\":6729:6842   */\n      iszero\n      tag_143\n      jumpi\n        /* \"#utility.yul\":6828:6829   */\n      dup1\n        /* \"#utility.yul\":6823:6826   */\n      dup3\n        /* \"#utility.yul\":6819:6830   */\n      add\n        /* \"#utility.yul\":6813:6831   */\n      mload\n        /* \"#utility.yul\":6809:6810   */\n      dup2\n        /* \"#utility.yul\":6804:6807   */\n      dup5\n        /* \"#utility.yul\":6800:6811   */\n      add\n        /* \"#utility.yul\":6793:6832   */\n      mstore\n        /* \"#utility.yul\":6765:6767   */\n      0x20\n        /* \"#utility.yul\":6762:6763   */\n      dup2\n        /* \"#utility.yul\":6758:6768   */\n      add\n        /* \"#utility.yul\":6753:6768   */\n      swap1\n      pop\n        /* \"#utility.yul\":6729:6842   */\n      jump(tag_141)\n    tag_143:\n        /* \"#utility.yul\":6876:6877   */\n      0x00\n        /* \"#utility.yul\":6867:6873   */\n      dup5\n        /* \"#utility.yul\":6862:6865   */\n      dup5\n        /* \"#utility.yul\":6858:6874   */\n      add\n        /* \"#utility.yul\":6851:6878   */\n      mstore\n        /* \"#utility.yul\":6700:6884   */\n      pop\n        /* \"#utility.yul\":6638:6884   */\n      pop\n      pop\n      pop\n      jump\t// out\n        /* \"#utility.yul\":6890:7267   */\n    tag_65:\n        /* \"#utility.yul\":6978:6981   */\n      0x00\n        /* \"#utility.yul\":7006:7045   */\n      tag_145\n        /* \"#utility.yul\":7039:7044   */\n      dup3\n        /* \"#utility.yul\":7006:7045   */\n      tag_62\n      jump\t// in\n    tag_145:\n        /* \"#utility.yul\":7061:7132   */\n      tag_146\n        /* \"#utility.yul\":7125:7131   */\n      dup2\n        /* \"#utility.yul\":7120:7123   */\n      dup6\n        /* \"#utility.yul\":7061:7132   */\n      tag_63\n      jump\t// in\n    tag_146:\n        /* \"#utility.yul\":7054:7132   */\n      swap4\n      pop\n        /* \"#utility.yul\":7141:7206   */\n      tag_147\n        /* \"#utility.yul\":7199:7205   */\n      dup2\n        /* \"#utility.yul\":7194:7197   */\n      dup6\n        /* \"#utility.yul\":7187:7191   */\n      0x20\n        /* \"#utility.yul\":7180:7185   */\n      dup7\n        /* \"#utility.yul\":7176:7192   */\n      add\n        /* \"#utility.yul\":7141:7206   */\n      tag_64\n      jump\t// in\n    tag_147:\n        /* \"#utility.yul\":7231:7260   */\n      tag_148\n        /* \"#utility.yul\":7253:7259   */\n      dup2\n        /* \"#utility.yul\":7231:7260   */\n      tag_41\n      jump\t// in\n    tag_148:\n        /* \"#utility.yul\":7226:7229   */\n      dup5\n        /* \"#utility.yul\":7222:7261   */\n      add\n        /* \"#utility.yul\":7215:7261   */\n      swap2\n      pop\n        /* \"#utility.yul\":6982:7267   */\n      pop\n        /* \"#utility.yul\":6890:7267   */\n      swap3\n      swap2\n      pop\n      pop\n      jump\t// out\n        /* \"#utility.yul\":7273:7586   */\n    tag_28:\n        /* \"#utility.yul\":7386:7390   */\n      0x00\n        /* \"#utility.yul\":7424:7426   */\n      0x20\n        /* \"#utility.yul\":7413:7422   */\n      dup3\n        /* \"#utility.yul\":7409:7427   */\n      add\n        /* \"#utility.yul\":7401:7427   */\n      swap1\n      pop\n        /* \"#utility.yul\":7473:7482   */\n      dup2\n        /* \"#utility.yul\":7467:7471   */\n      dup2\n        /* \"#utility.yul\":7463:7483   */\n      sub\n        /* \"#utility.yul\":7459:7460   */\n      0x00\n        /* \"#utility.yul\":7448:7457   */\n      dup4\n        /* \"#utility.yul\":7444:7461   */\n      add\n        /* \"#utility.yul\":7437:7484   */\n      mstore\n        /* \"#utility.yul\":7501:7579   */\n      tag_150\n        /* \"#utility.yul\":7574:7578   */\n      dup2\n        /* \"#utility.yul\":7565:7571   */\n      dup5\n        /* \"#utility.yul\":7501:7579   */\n      tag_65\n      jump\t// in\n    tag_150:\n        /* \"#utility.yul\":7493:7579   */\n      swap1\n      pop\n        /* \"#utility.yul\":7273:7586   */\n      swap3\n      swap2\n      pop\n      pop\n      jump\t// out\n    stop\n\n    sub_0: assembly {\n            /* \"Imooc.sol\":545:656  contract Course {... */\n          mstore(0x40, 0x80)\n            /* \"Imooc.sol\":592:654  constructor(string memory _name) {... */\n          callvalue\n          dup1\n          iszero\n          tag_1\n          jumpi\n          0x00\n          dup1\n          revert\n        tag_1:\n          pop\n          mload(0x40)\n          sub(codesize, bytecodeSize)\n          dup1\n          bytecodeSize\n          dup4\n          codecopy\n          dup2\n          dup2\n          add\n          0x40\n          mstore\n          dup2\n          add\n          swap1\n          tag_2\n          swap2\n          swap1\n          tag_3\n          jump\t// in\n        tag_2:\n            /* \"Imooc.sol\":642:647  _name */\n          dup1\n            /* \"Imooc.sol\":635:639  name */\n          0x00\n            /* \"Imooc.sol\":635:647  name = _name */\n          swap1\n          dup2\n          tag_6\n          swap2\n          swap1\n          tag_7\n          jump\t// in\n        tag_6:\n          pop\n            /* \"Imooc.sol\":592:654  constructor(string memory _name) {... */\n          pop\n            /* \"Imooc.sol\":545:656  contract Course {... */\n          jump(tag_8)\n            /* \"#utility.yul\":7:82   */\n        tag_9:\n            /* \"#utility.yul\":40:46   */\n          0x00\n            /* \"#utility.yul\":73:75   */\n          0x40\n            /* \"#utility.yul\":67:76   */\n          mload\n            /* \"#utility.yul\":57:76   */\n          swap1\n          pop\n            /* \"#utility.yul\":7:82   */\n          swap1\n          jump\t// out\n            /* \"#utility.yul\":88:205   */\n        tag_10:\n            /* \"#utility.yul\":197:198   */\n          0x00\n            /* \"#utility.yul\":194:195   */\n          dup1\n            /* \"#utility.yul\":187:199   */\n          revert\n            /* \"#utility.yul\":211:328   */\n        tag_11:\n            /* \"#utility.yul\":320:321   */\n          0x00\n            /* \"#utility.yul\":317:318   */\n          dup1\n            /* \"#utility.yul\":310:322   */\n          revert\n            /* \"#utility.yul\":334:451   */\n        tag_12:\n            /* \"#utility.yul\":443:444   */\n          0x00\n            /* \"#utility.yul\":440:441   */\n          dup1\n            /* \"#utility.yul\":433:445   */\n          revert\n            /* \"#utility.yul\":457:574   */\n        tag_13:\n            /* \"#utility.yul\":566:567   */\n          0x00\n            /* \"#utility.yul\":563:564   */\n          dup1\n            /* \"#utility.yul\":556:568   */\n          revert\n            /* \"#utility.yul\":580:682   */\n        tag_14:\n            /* \"#utility.yul\":621:627   */\n          0x00\n            /* \"#utility.yul\":672:674   */\n          0x1f\n            /* \"#utility.yul\":668:675   */\n          not\n            /* \"#utility.yul\":663:665   */\n          0x1f\n            /* \"#utility.yul\":656:661   */\n          dup4\n            /* \"#utility.yul\":652:666   */\n          add\n            /* \"#utility.yul\":648:676   */\n          and\n            /* \"#utility.yul\":638:676   */\n          swap1\n          pop\n            /* \"#utility.yul\":580:682   */\n          swap2\n          swap1\n          pop\n          jump\t// out\n            /* \"#utility.yul\":688:868   */\n        tag_15:\n            /* \"#utility.yul\":736:813   */\n          0x4e487b7100000000000000000000000000000000000000000000000000000000\n            /* \"#utility.yul\":733:734   */\n          0x00\n            /* \"#utility.yul\":726:814   */\n          mstore\n            /* \"#utility.yul\":833:837   */\n          0x41\n            /* \"#utility.yul\":830:831   */\n          0x04\n            /* \"#utility.yul\":823:838   */\n          mstore\n            /* \"#utility.yul\":857:861   */\n          0x24\n            /* \"#utility.yul\":854:855   */\n          0x00\n            /* \"#utility.yul\":847:862   */\n          revert\n            /* \"#utility.yul\":874:1155   */\n        tag_16:\n            /* \"#utility.yul\":957:984   */\n          tag_50\n            /* \"#utility.yul\":979:983   */\n          dup3\n            /* \"#utility.yul\":957:984   */\n          tag_14\n          jump\t// in\n        tag_50:\n            /* \"#utility.yul\":949:955   */\n          dup2\n            /* \"#utility.yul\":945:985   */\n          add\n            /* \"#utility.yul\":1087:1093   */\n          dup2\n            /* \"#utility.yul\":1075:1085   */\n          dup2\n            /* \"#utility.yul\":1072:1094   */\n          lt\n            /* \"#utility.yul\":1051:1069   */\n          0xffffffffffffffff\n            /* \"#utility.yul\":1039:1049   */\n          dup3\n            /* \"#utility.yul\":1036:1070   */\n          gt\n            /* \"#utility.yul\":1033:1095   */\n          or\n            /* \"#utility.yul\":1030:1118   */\n          iszero\n          tag_51\n          jumpi\n            /* \"#utility.yul\":1098:1116   */\n          tag_52\n          tag_15\n          jump\t// in\n        tag_52:\n            /* \"#utility.yul\":1030:1118   */\n        tag_51:\n            /* \"#utility.yul\":1138:1148   */\n          dup1\n            /* \"#utility.yul\":1134:1136   */\n          0x40\n            /* \"#utility.yul\":1127:1149   */\n          mstore\n            /* \"#utility.yul\":917:1155   */\n          pop\n            /* \"#utility.yul\":874:1155   */\n          pop\n          pop\n          jump\t// out\n            /* \"#utility.yul\":1161:1290   */\n        tag_17:\n            /* \"#utility.yul\":1195:1201   */\n          0x00\n            /* \"#utility.yul\":1222:1242   */\n          tag_54\n          tag_9\n          jump\t// in\n        tag_54:\n            /* \"#utility.yul\":1212:1242   */\n          swap1\n          pop\n            /* \"#utility.yul\":1251:1284   */\n          tag_55\n            /* \"#utility.yul\":1279:1283   */\n          dup3\n            /* \"#utility.yul\":1271:1277   */\n          dup3\n            /* \"#utility.yul\":1251:1284   */\n          tag_16\n          jump\t// in\n        tag_55:\n            /* \"#utility.yul\":1161:1290   */\n          swap2\n          swap1\n          pop\n          jump\t// out\n            /* \"#utility.yul\":1296:1604   */\n        tag_18:\n            /* \"#utility.yul\":1358:1362   */\n          0x00\n            /* \"#utility.yul\":1448:1466   */\n          0xffffffffffffffff\n            /* \"#utility.yul\":1440:1446   */\n          dup3\n            /* \"#utility.yul\":1437:1467   */\n          gt\n            /* \"#utility.yul\":1434:1490   */\n          iszero\n          tag_57\n          jumpi\n            /* \"#utility.yul\":1470:1488   */\n          tag_58\n          tag_15\n          jump\t// in\n        tag_58:\n            /* \"#utility.yul\":1434:1490   */\n        tag_57:\n            /* \"#utility.yul\":1508:1537   */\n          tag_59\n            /* \"#utility.yul\":1530:1536   */\n          dup3\n            /* \"#utility.yul\":1508:1537   */\n          tag_14\n          jump\t// in\n        tag_59:\n            /* \"#utility.yul\":1500:1537   */\n          swap1\n          pop\n            /* \"#utility.yul\":1592:1596   */\n          0x20\n            /* \"#utility.yul\":1586:1590   */\n          dup2\n            /* \"#utility.yul\":1582:1597   */\n          add\n            /* \"#utility.yul\":1574:1597   */\n          swap1\n          pop\n            /* \"#utility.yul\":1296:1604   */\n          swap2\n          swap1\n          pop\n          jump\t// out\n            /* \"#utility.yul\":1610:1856   */\n        tag_19:\n            /* \"#utility.yul\":1691:1692   */\n          0x00\n            /* \"#utility.yul\":1701:1814   */\n        tag_61:\n            /* \"#utility.yul\":1715:1721   */\n          dup4\n            /* \"#utility.yul\":1712:1713   */\n          dup2\n            /* \"#utility.yul\":1709:1722   */\n          lt\n            /* \"#utility.yul\":1701:1814   */\n          iszero\n          tag_63\n          jumpi\n            /* \"#utility.yul\":1800:1801   */\n          dup1\n            /* \"#utility.yul\":1795:1798   */\n          dup3\n            /* \"#utility.yul\":1791:1802   */\n          add\n            /* \"#utility.yul\":1785:1803   */\n          mload\n            /* \"#utility.yul\":1781:1782   */\n          dup2\n            /* \"#utility.yul\":1776:1779   */\n          dup5\n            /* \"#utility.yul\":1772:1783   */\n          add\n            /* \"#utility.yul\":1765:1804   */\n          mstore\n            /* \"#utility.yul\":1737:1739   */\n          0x20\n            /* \"#utility.yul\":1734:1735   */\n          dup2\n            /* \"#utility.yul\":1730:1740   */\n          add\n            /* \"#utility.yul\":1725:1740   */\n          swap1\n          pop\n            /* \"#utility.yul\":1701:1814   */\n          jump(tag_61)\n        tag_63:\n            /* \"#utility.yul\":1848:1849   */\n          0x00\n            /* \"#utility.yul\":1839:1845   */\n          dup5\n            /* \"#utility.yul\":1834:1837   */\n          dup5\n            /* \"#utility.yul\":1830:1846   */\n          add\n            /* \"#utility.yul\":1823:1850   */\n          mstore\n            /* \"#utility.yul\":1672:1856   */\n          pop\n            /* \"#utility.yul\":1610:1856   */\n          pop\n          pop\n          pop\n          jump\t// out\n            /* \"#utility.yul\":1862:2296   */\n        tag_20:\n            /* \"#utility.yul\":1951:1956   */\n          0x00\n            /* \"#utility.yul\":1976:2042   */\n          tag_65\n            /* \"#utility.yul\":1992:2041   */\n          tag_66\n            /* \"#utility.yul\":2034:2040   */\n          dup5\n            /* \"#utility.yul\":1992:2041   */\n          tag_18\n          jump\t// in\n        tag_66:\n            /* \"#utility.yul\":1976:2042   */\n          tag_17\n          jump\t// in\n        tag_65:\n            /* \"#utility.yul\":1967:2042   */\n          swap1\n          pop\n            /* \"#utility.yul\":2065:2071   */\n          dup3\n            /* \"#utility.yul\":2058:2063   */\n          dup2\n            /* \"#utility.yul\":2051:2072   */\n          mstore\n            /* \"#utility.yul\":2103:2107   */\n          0x20\n            /* \"#utility.yul\":2096:2101   */\n          dup2\n            /* \"#utility.yul\":2092:2108   */\n          add\n            /* \"#utility.yul\":2141:2144   */\n          dup5\n            /* \"#utility.yul\":2132:2138   */\n          dup5\n            /* \"#utility.yul\":2127:2130   */\n          dup5\n            /* \"#utility.yul\":2123:2139   */\n          add\n            /* \"#utility.yul\":2120:2145   */\n          gt\n            /* \"#utility.yul\":2117:2229   */\n          iszero\n          tag_67\n          jumpi\n            /* \"#utility.yul\":2148:2227   */\n          tag_68\n          tag_13\n          jump\t// in\n        tag_68:\n            /* \"#utility.yul\":2117:2229   */\n        tag_67:\n            /* \"#utility.yul\":2238:2290   */\n          tag_69\n            /* \"#utility.yul\":2283:2289   */\n          dup5\n            /* \"#utility.yul\":2278:2281   */\n          dup3\n            /* \"#utility.yul\":2273:2276   */\n          dup6\n            /* \"#utility.yul\":2238:2290   */\n          tag_19\n          jump\t// in\n        tag_69:\n            /* \"#utility.yul\":1957:2296   */\n          pop\n            /* \"#utility.yul\":1862:2296   */\n          swap4\n          swap3\n          pop\n          pop\n          pop\n          jump\t// out\n            /* \"#utility.yul\":2316:2671   */\n        tag_21:\n            /* \"#utility.yul\":2383:2388   */\n          0x00\n            /* \"#utility.yul\":2432:2435   */\n          dup3\n            /* \"#utility.yul\":2425:2429   */\n          0x1f\n            /* \"#utility.yul\":2417:2423   */\n          dup4\n            /* \"#utility.yul\":2413:2430   */\n          add\n            /* \"#utility.yul\":2409:2436   */\n          slt\n            /* \"#utility.yul\":2399:2521   */\n          tag_71\n          jumpi\n            /* \"#utility.yul\":2440:2519   */\n          tag_72\n          tag_12\n          jump\t// in\n        tag_72:\n            /* \"#utility.yul\":2399:2521   */\n        tag_71:\n            /* \"#utility.yul\":2550:2556   */\n          dup2\n            /* \"#utility.yul\":2544:2557   */\n          mload\n            /* \"#utility.yul\":2575:2665   */\n          tag_73\n            /* \"#utility.yul\":2661:2664   */\n          dup5\n            /* \"#utility.yul\":2653:2659   */\n          dup3\n            /* \"#utility.yul\":2646:2650   */\n          0x20\n            /* \"#utility.yul\":2638:2644   */\n          dup7\n            /* \"#utility.yul\":2634:2651   */\n          add\n            /* \"#utility.yul\":2575:2665   */\n          tag_20\n          jump\t// in\n        tag_73:\n            /* \"#utility.yul\":2566:2665   */\n          swap2\n          pop\n            /* \"#utility.yul\":2389:2671   */\n          pop\n            /* \"#utility.yul\":2316:2671   */\n          swap3\n          swap2\n          pop\n          pop\n          jump\t// out\n            /* \"#utility.yul\":2677:3201   */\n        tag_3:\n            /* \"#utility.yul\":2757:2763   */\n          0x00\n            /* \"#utility.yul\":2806:2808   */\n          0x20\n            /* \"#utility.yul\":2794:2803   */\n          dup3\n            /* \"#utility.yul\":2785:2792   */\n          dup5\n            /* \"#utility.yul\":2781:2804   */\n          sub\n            /* \"#utility.yul\":2777:2809   */\n          slt\n            /* \"#utility.yul\":2774:2893   */\n          iszero\n          tag_75\n          jumpi\n            /* \"#utility.yul\":2812:2891   */\n          tag_76\n          tag_10\n          jump\t// in\n        tag_76:\n            /* \"#utility.yul\":2774:2893   */\n        tag_75:\n            /* \"#utility.yul\":2953:2954   */\n          0x00\n            /* \"#utility.yul\":2942:2951   */\n          dup3\n            /* \"#utility.yul\":2938:2955   */\n          add\n            /* \"#utility.yul\":2932:2956   */\n          mload\n            /* \"#utility.yul\":2983:3001   */\n          0xffffffffffffffff\n            /* \"#utility.yul\":2975:2981   */\n          dup2\n            /* \"#utility.yul\":2972:3002   */\n          gt\n            /* \"#utility.yul\":2969:3086   */\n          iszero\n          tag_77\n          jumpi\n            /* \"#utility.yul\":3005:3084   */\n          tag_78\n          tag_11\n          jump\t// in\n        tag_78:\n            /* \"#utility.yul\":2969:3086   */\n        tag_77:\n            /* \"#utility.yul\":3110:3184   */\n          tag_79\n            /* \"#utility.yul\":3176:3183   */\n          dup5\n            /* \"#utility.yul\":3167:3173   */\n          dup3\n            /* \"#utility.yul\":3156:3165   */\n          dup6\n            /* \"#utility.yul\":3152:3174   */\n          add\n            /* \"#utility.yul\":3110:3184   */\n          tag_21\n          jump\t// in\n        tag_79:\n            /* \"#utility.yul\":3100:3184   */\n          swap2\n          pop\n            /* \"#utility.yul\":2903:3194   */\n          pop\n            /* \"#utility.yul\":2677:3201   */\n          swap3\n          swap2\n          pop\n          pop\n          jump\t// out\n            /* \"#utility.yul\":3207:3306   */\n        tag_22:\n            /* \"#utility.yul\":3259:3265   */\n          0x00\n            /* \"#utility.yul\":3293:3298   */\n          dup2\n            /* \"#utility.yul\":3287:3299   */\n          mload\n            /* \"#utility.yul\":3277:3299   */\n          swap1\n          pop\n            /* \"#utility.yul\":3207:3306   */\n          swap2\n          swap1\n          pop\n          jump\t// out\n            /* \"#utility.yul\":3312:3492   */\n        tag_23:\n            /* \"#utility.yul\":3360:3437   */\n          0x4e487b7100000000000000000000000000000000000000000000000000000000\n            /* \"#utility.yul\":3357:3358   */\n          0x00\n            /* \"#utility.yul\":3350:3438   */\n          mstore\n            /* \"#utility.yul\":3457:3461   */\n          0x22\n            /* \"#utility.yul\":3454:3455   */\n          0x04\n            /* \"#utility.yul\":3447:3462   */\n          mstore\n            /* \"#utility.yul\":3481:3485   */\n          0x24\n            /* \"#utility.yul\":3478:3479   */\n          0x00\n            /* \"#utility.yul\":3471:3486   */\n          revert\n            /* \"#utility.yul\":3498:3818   */\n        tag_24:\n            /* \"#utility.yul\":3542:3548   */\n          0x00\n            /* \"#utility.yul\":3579:3580   */\n          0x02\n            /* \"#utility.yul\":3573:3577   */\n          dup3\n            /* \"#utility.yul\":3569:3581   */\n          div\n            /* \"#utility.yul\":3559:3581   */\n          swap1\n          pop\n            /* \"#utility.yul\":3626:3627   */\n          0x01\n            /* \"#utility.yul\":3620:3624   */\n          dup3\n            /* \"#utility.yul\":3616:3628   */\n          and\n            /* \"#utility.yul\":3647:3665   */\n          dup1\n            /* \"#utility.yul\":3637:3718   */\n          tag_83\n          jumpi\n            /* \"#utility.yul\":3703:3707   */\n          0x7f\n            /* \"#utility.yul\":3695:3701   */\n          dup3\n            /* \"#utility.yul\":3691:3708   */\n          and\n            /* \"#utility.yul\":3681:3708   */\n          swap2\n          pop\n            /* \"#utility.yul\":3637:3718   */\n        tag_83:\n            /* \"#utility.yul\":3765:3767   */\n          0x20\n            /* \"#utility.yul\":3757:3763   */\n          dup3\n            /* \"#utility.yul\":3754:3768   */\n          lt\n            /* \"#utility.yul\":3734:3752   */\n          dup2\n            /* \"#utility.yul\":3731:3769   */\n          sub\n            /* \"#utility.yul\":3728:3812   */\n          tag_84\n          jumpi\n            /* \"#utility.yul\":3784:3802   */\n          tag_85\n          tag_23\n          jump\t// in\n        tag_85:\n            /* \"#utility.yul\":3728:3812   */\n        tag_84:\n            /* \"#utility.yul\":3549:3818   */\n          pop\n            /* \"#utility.yul\":3498:3818   */\n          swap2\n          swap1\n          pop\n          jump\t// out\n            /* \"#utility.yul\":3824:3965   */\n        tag_25:\n            /* \"#utility.yul\":3873:3877   */\n          0x00\n            /* \"#utility.yul\":3896:3899   */\n          dup2\n            /* \"#utility.yul\":3888:3899   */\n          swap1\n          pop\n            /* \"#utility.yul\":3919:3922   */\n          dup2\n            /* \"#utility.yul\":3916:3917   */\n          0x00\n            /* \"#utility.yul\":3909:3923   */\n          mstore\n            /* \"#utility.yul\":3953:3957   */\n          0x20\n            /* \"#utility.yul\":3950:3951   */\n          0x00\n            /* \"#utility.yul\":3940:3958   */\n          keccak256\n            /* \"#utility.yul\":3932:3958   */\n          swap1\n          pop\n            /* \"#utility.yul\":3824:3965   */\n          swap2\n          swap1\n          pop\n          jump\t// out\n            /* \"#utility.yul\":3971:4064   */\n        tag_26:\n            /* \"#utility.yul\":4008:4014   */\n          0x00\n            /* \"#utility.yul\":4055:4057   */\n          0x20\n            /* \"#utility.yul\":4050:4052   */\n          0x1f\n            /* \"#utility.yul\":4043:4048   */\n          dup4\n            /* \"#utility.yul\":4039:4053   */\n          add\n            /* \"#utility.yul\":4035:4058   */\n          div\n            /* \"#utility.yul\":4025:4058   */\n          swap1\n          pop\n            /* \"#utility.yul\":3971:4064   */\n          swap2\n          swap1\n          pop\n          jump\t// out\n            /* \"#utility.yul\":4070:4177   */\n        tag_27:\n            /* \"#utility.yul\":4114:4122   */\n          0x00\n            /* \"#utility.yul\":4164:4169   */\n          dup3\n            /* \"#utility.yul\":4158:4162   */\n          dup3\n            /* \"#utility.yul\":4154:4170   */\n          shl\n            /* \"#utility.yul\":4133:4170   */\n          swap1\n          pop\n            /* \"#utility.yul\":4070:4177   */\n          swap3\n          swap2\n          pop\n          pop\n          jump\t// out\n            /* \"#utility.yul\":4183:4576   */\n        tag_28:\n            /* \"#utility.yul\":4252:4258   */\n          0x00\n            /* \"#utility.yul\":4302:4303   */\n          0x08\n            /* \"#utility.yul\":4290:4300   */\n          dup4\n            /* \"#utility.yul\":4286:4304   */\n          mul\n            /* \"#utility.yul\":4325:4422   */\n          tag_90\n            /* \"#utility.yul\":4355:4421   */\n          0xffffffffffffffffffffffffffffffffffffffffffffffffffffffffffffffff\n            /* \"#utility.yul\":4344:4353   */\n          dup3\n            /* \"#utility.yul\":4325:4422   */\n          tag_27\n          jump\t// in\n        tag_90:\n            /* \"#utility.yul\":4443:4482   */\n          tag_91\n            /* \"#utility.yul\":4473:4481   */\n          dup7\n            /* \"#utility.yul\":4462:4471   */\n          dup4\n            /* \"#utility.yul\":4443:4482   */\n          tag_27\n          jump\t// in\n        tag_91:\n            /* \"#utility.yul\":4431:4482   */\n          swap6\n          pop\n            /* \"#utility.yul\":4515:4519   */\n          dup1\n            /* \"#utility.yul\":4511:4520   */\n          not\n            /* \"#utility.yul\":4504:4509   */\n          dup5\n            /* \"#utility.yul\":4500:4521   */\n          and\n            /* \"#utility.yul\":4491:4521   */\n          swap4\n          pop\n            /* \"#utility.yul\":4564:4568   */\n          dup1\n            /* \"#utility.yul\":4554:4562   */\n          dup7\n            /* \"#utility.yul\":4550:4569   */\n          and\n            /* \"#utility.yul\":4543:4548   */\n          dup5\n            /* \"#utility.yul\":4540:4570   */\n          or\n            /* \"#utility.yul\":4530:4570   */\n          swap3\n          pop\n            /* \"#utility.yul\":4259:4576   */\n          pop\n          pop\n            /* \"#utility.yul\":4183:4576   */\n          swap4\n          swap3\n          pop\n          pop\n          pop\n          jump\t// out\n            /* \"#utility.yul\":4582:4659   */\n        tag_29:\n            /* \"#utility.yul\":4619:4626   */\n          0x00\n            /* \"#utility.yul\":4648:4653   */\n          dup2\n            /* \"#utility.yul\":4637:4653   */\n          swap1\n          pop\n            /* \"#utility.yul\":4582:4659   */\n          swap2\n          swap1\n          pop\n          jump\t// out\n            /* \"#utility.yul\":4665:4725   */\n        tag_30:\n            /* \"#utility.yul\":4693:4696   */\n          0x00\n            /* \"#utility.yul\":4714:4719   */\n          dup2\n            /* \"#utility.yul\":4707:4719   */\n          swap1\n          pop\n            /* \"#utility.yul\":4665:4725   */\n          swap2\n          swap1\n          pop\n          jump\t// out\n            /* \"#utility.yul\":4731:4873   */\n        tag_31:\n            /* \"#utility.yul\":4781:4790   */\n          0x00\n            /* \"#utility.yul\":4814:4867   */\n          tag_95\n            /* \"#utility.yul\":4832:4866   */\n          tag_96\n            /* \"#utility.yul\":4841:4865   */\n          tag_97\n            /* \"#utility.yul\":4859:4864   */\n          dup5\n            /* \"#utility.yul\":4841:4865   */\n          tag_29\n          jump\t// in\n        tag_97:\n            /* \"#utility.yul\":4832:4866   */\n          tag_30\n          jump\t// in\n        tag_96:\n            /* \"#utility.yul\":4814:4867   */\n          tag_29\n          jump\t// in\n        tag_95:\n            /* \"#utility.yul\":4801:4867   */\n          swap1\n          pop\n            /* \"#utility.yul\":4731:4873   */\n          swap2\n          swap1\n          pop\n          jump\t// out\n            /* \"#utility.yul\":4879:4954   */\n        tag_32:\n            /* \"#utility.yul\":4922:4925   */\n          0x00\n            /* \"#utility.yul\":4943:4948   */\n          dup2\n            /* \"#utility.yul\":4936:4948   */\n          swap1\n          pop\n            /* \"#utility.yul\":4879:4954   */\n          swap2\n          swap1\n          pop\n          jump\t// out\n            /* \"#utility.yul\":4960:5229   */\n        tag_33:\n            /* \"#utility.yul\":5070:5109   */\n          tag_100\n            /* \"#utility.yul\":5101:5108   */\n          dup4\n            /* \"#utility.yul\":5070:5109   */\n          tag_31\n          jump\t// in\n        tag_100:\n            /* \"#utility.yul\":5131:5222   */\n          tag_101\n            /* \"#utility.yul\":5180:5221   */\n          tag_102\n            /* \"#utility.yul\":5204:5220   */\n          dup3\n            /* \"#utility.yul\":5180:5221   */\n          tag_32\n          jump\t// in\n        tag_102:\n            /* \"#utility.yul\":5172:5178   */\n          dup5\n            /* \"#utility.yul\":5165:5169   */\n          dup5\n            /* \"#utility.yul\":5159:5170   */\n          sload\n            /* \"#utility.yul\":5131:5222   */\n          tag_28\n          jump\t// in\n        tag_101:\n            /* \"#utility.yul\":5125:5129   */\n          dup3\n            /* \"#utility.yul\":5118:5223   */\n          sstore\n            /* \"#utility.yul\":5036:5229   */\n          pop\n            /* \"#utility.yul\":4960:5229   */\n          pop\n          pop\n          pop\n          jump\t// out\n            /* \"#utility.yul\":5235:5308   */\n        tag_34:\n            /* \"#utility.yul\":5280:5283   */\n          0x00\n            /* \"#utility.yul\":5235:5308   */\n          swap1\n          jump\t// out\n            /* \"#utility.yul\":5314:5503   */\n        tag_35:\n            /* \"#utility.yul\":5391:5423   */\n          tag_105\n          tag_34\n          jump\t// in\n        tag_105:\n            /* \"#utility.yul\":5432:5497   */\n          tag_106\n            /* \"#utility.yul\":5490:5496   */\n          dup2\n            /* \"#utility.yul\":5482:5488   */\n          dup5\n            /* \"#utility.yul\":5476:5480   */\n          dup5\n            /* \"#utility.yul\":5432:5497   */\n          tag_33\n          jump\t// in\n        tag_106:\n            /* \"#utility.yul\":5367:5503   */\n          pop\n            /* \"#utility.yul\":5314:5503   */\n          pop\n          pop\n          jump\t// out\n            /* \"#utility.yul\":5509:5695   */\n        tag_36:\n            /* \"#utility.yul\":5569:5689   */\n        tag_108:\n            /* \"#utility.yul\":5586:5589   */\n          dup2\n            /* \"#utility.yul\":5579:5584   */\n          dup2\n            /* \"#utility.yul\":5576:5590   */\n          lt\n            /* \"#utility.yul\":5569:5689   */\n          iszero\n          tag_110\n          jumpi\n            /* \"#utility.yul\":5640:5679   */\n          tag_111\n            /* \"#utility.yul\":5677:5678   */\n          0x00\n            /* \"#utility.yul\":5670:5675   */\n          dup3\n            /* \"#utility.yul\":5640:5679   */\n          tag_35\n          jump\t// in\n        tag_111:\n            /* \"#utility.yul\":5613:5614   */\n          0x01\n            /* \"#utility.yul\":5606:5611   */\n          dup2\n            /* \"#utility.yul\":5602:5615   */\n          add\n            /* \"#utility.yul\":5593:5615   */\n          swap1\n          pop\n            /* \"#utility.yul\":5569:5689   */\n          jump(tag_108)\n        tag_110:\n            /* \"#utility.yul\":5509:5695   */\n          pop\n          pop\n          jump\t// out\n            /* \"#utility.yul\":5701:6244   */\n        tag_37:\n            /* \"#utility.yul\":5802:5804   */\n          0x1f\n            /* \"#utility.yul\":5797:5800   */\n          dup3\n            /* \"#utility.yul\":5794:5805   */\n          gt\n            /* \"#utility.yul\":5791:6237   */\n          iszero\n          tag_113\n          jumpi\n            /* \"#utility.yul\":5836:5874   */\n          tag_114\n            /* \"#utility.yul\":5868:5873   */\n          dup2\n            /* \"#utility.yul\":5836:5874   */\n          tag_25\n          jump\t// in\n        tag_114:\n            /* \"#utility.yul\":5920:5949   */\n          tag_115\n            /* \"#utility.yul\":5938:5948   */\n          dup5\n            /* \"#utility.yul\":5920:5949   */\n          tag_26\n          jump\t// in\n        tag_115:\n            /* \"#utility.yul\":5910:5918   */\n          dup2\n            /* \"#utility.yul\":5906:5950   */\n          add\n            /* \"#utility.yul\":6103:6105   */\n          0x20\n            /* \"#utility.yul\":6091:6101   */\n          dup6\n            /* \"#utility.yul\":6088:6106   */\n          lt\n            /* \"#utility.yul\":6085:6134   */\n          iszero\n          tag_116\n          jumpi\n            /* \"#utility.yul\":6124:6132   */\n          dup2\n            /* \"#utility.yul\":6109:6132   */\n          swap1\n          pop\n            /* \"#utility.yul\":6085:6134   */\n        tag_116:\n            /* \"#utility.yul\":6147:6227   */\n          tag_117\n            /* \"#utility.yul\":6203:6225   */\n          tag_118\n            /* \"#utility.yul\":6221:6224   */\n          dup6\n            /* \"#utility.yul\":6203:6225   */\n          tag_26\n          jump\t// in\n        tag_118:\n            /* \"#utility.yul\":6193:6201   */\n          dup4\n            /* \"#utility.yul\":6189:6226   */\n          add\n            /* \"#utility.yul\":6176:6187   */\n          dup3\n            /* \"#utility.yul\":6147:6227   */\n          tag_36\n          jump\t// in\n        tag_117:\n            /* \"#utility.yul\":5806:6237   */\n          pop\n          pop\n            /* \"#utility.yul\":5791:6237   */\n        tag_113:\n            /* \"#utility.yul\":5701:6244   */\n          pop\n          pop\n          pop\n          jump\t// out\n            /* \"#utility.yul\":6250:6367   */\n        tag_38:\n            /* \"#utility.yul\":6304:6312   */\n          0x00\n            /* \"#utility.yul\":6354:6359   */\n          dup3\n            /* \"#utility.yul\":6348:6352   */\n          dup3\n            /* \"#utility.yul\":6344:6360   */\n          shr\n            /* \"#utility.yul\":6323:6360   */\n          swap1\n          pop\n            /* \"#utility.yul\":6250:6367   */\n          swap3\n          swap2\n          pop\n          pop\n          jump\t// out\n            /* \"#utility.yul\":6373:6542   */\n        tag_39:\n            /* \"#utility.yul\":6417:6423   */\n          0x00\n            /* \"#utility.yul\":6450:6501   */\n          tag_121\n            /* \"#utility.yul\":6498:6499   */\n          0x00\n            /* \"#utility.yul\":6494:6500   */\n          not\n            /* \"#utility.yul\":6486:6491   */\n          dup5\n            /* \"#utility.yul\":6483:6484   */\n          0x08\n            /* \"#utility.yul\":6479:6492   */\n          mul\n            /* \"#utility.yul\":6450:6501   */\n          tag_38\n          jump\t// in\n        tag_121:\n            /* \"#utility.yul\":6446:6502   */\n          not\n            /* \"#utility.yul\":6531:6535   */\n          dup1\n            /* \"#utility.yul\":6525:6529   */\n          dup4\n            /* \"#utility.yul\":6521:6536   */\n          and\n            /* \"#utility.yul\":6511:6536   */\n          swap2\n          pop\n            /* \"#utility.yul\":6424:6542   */\n          pop\n            /* \"#utility.yul\":6373:6542   */\n          swap3\n          swap2\n          pop\n          pop\n          jump\t// out\n            /* \"#utility.yul\":6547:6842   */\n        tag_40:\n            /* \"#utility.yul\":6623:6627   */\n          0x00\n            /* \"#utility.yul\":6769:6798   */\n          tag_123\n            /* \"#utility.yul\":6794:6797   */\n          dup4\n            /* \"#utility.yul\":6788:6792   */\n          dup4\n            /* \"#utility.yul\":6769:6798   */\n          tag_39\n          jump\t// in\n        tag_123:\n            /* \"#utility.yul\":6761:6798   */\n          swap2\n          pop\n            /* \"#utility.yul\":6831:6834   */\n          dup3\n            /* \"#utility.yul\":6828:6829   */\n          0x02\n            /* \"#utility.yul\":6824:6835   */\n          mul\n            /* \"#utility.yul\":6818:6822   */\n          dup3\n            /* \"#utility.yul\":6815:6836   */\n          or\n            /* \"#utility.yul\":6807:6836   */\n          swap1\n          pop\n            /* \"#utility.yul\":6547:6842   */\n          swap3\n          swap2\n          pop\n          pop\n          jump\t// out\n            /* \"#utility.yul\":6847:8242   */\n        tag_7:\n            /* \"#utility.yul\":6964:7001   */\n          tag_125\n            /* \"#utility.yul\":6997:7000   */\n          dup3\n            /* \"#utility.yul\":6964:7001   */\n          tag_22\n          jump\t// in\n        tag_125:\n            /* \"#utility.yul\":7066:7084   */\n          0xffffffffffffffff\n            /* \"#utility.yul\":7058:7064   */\n          dup2\n            /* \"#utility.yul\":7055:7085   */\n          gt\n            /* \"#utility.yul\":7052:7108   */\n          iszero\n          tag_126\n          jumpi\n            /* \"#utility.yul\":7088:7106   */\n          tag_127\n          tag_15\n          jump\t// in\n        tag_127:\n            /* \"#utility.yul\":7052:7108   */\n        tag_126:\n            /* \"#utility.yul\":7132:7170   */\n          tag_128\n            /* \"#utility.yul\":7164:7168   */\n          dup3\n            /* \"#utility.yul\":7158:7169   */\n          sload\n            /* \"#utility.yul\":7132:7170   */\n          tag_24\n          jump\t// in\n        tag_128:\n            /* \"#utility.yul\":7217:7284   */\n          tag_129\n            /* \"#utility.yul\":7277:7283   */\n          dup3\n            /* \"#utility.yul\":7269:7275   */\n          dup3\n            /* \"#utility.yul\":7263:7267   */\n          dup6\n            /* \"#utility.yul\":7217:7284   */\n          tag_37\n          jump\t// in\n        tag_129:\n            /* \"#utility.yul\":7311:7312   */\n          0x00\n            /* \"#utility.yul\":7335:7339   */\n          0x20\n            /* \"#utility.yul\":7322:7339   */\n          swap1\n          pop\n            /* \"#utility.yul\":7367:7369   */\n          0x1f\n            /* \"#utility.yul\":7359:7365   */\n          dup4\n            /* \"#utility.yul\":7356:7370   */\n          gt\n            /* \"#utility.yul\":7384:7385   */\n          0x01\n            /* \"#utility.yul\":7379:7997   */\n          dup2\n          eq\n          tag_131\n          jumpi\n            /* \"#utility.yul\":8041:8042   */\n          0x00\n            /* \"#utility.yul\":8058:8064   */\n          dup5\n            /* \"#utility.yul\":8055:8132   */\n          iszero\n          tag_132\n          jumpi\n            /* \"#utility.yul\":8107:8116   */\n          dup3\n            /* \"#utility.yul\":8102:8105   */\n          dup8\n            /* \"#utility.yul\":8098:8117   */\n          add\n            /* \"#utility.yul\":8092:8118   */\n          mload\n            /* \"#utility.yul\":8083:8118   */\n          swap1\n          pop\n            /* \"#utility.yul\":8055:8132   */\n        tag_132:\n            /* \"#utility.yul\":8158:8225   */\n          tag_133\n            /* \"#utility.yul\":8218:8224   */\n          dup6\n            /* \"#utility.yul\":8211:8216   */\n          dup3\n            /* \"#utility.yul\":8158:8225   */\n          tag_40\n          jump\t// in\n        tag_133:\n            /* \"#utility.yul\":8152:8156   */\n          dup7\n            /* \"#utility.yul\":8145:8226   */\n          sstore\n            /* \"#utility.yul\":8014:8236   */\n          pop\n            /* \"#utility.yul\":7349:8236   */\n          jump(tag_130)\n            /* \"#utility.yul\":7379:7997   */\n        tag_131:\n            /* \"#utility.yul\":7431:7435   */\n          0x1f\n            /* \"#utility.yul\":7427:7436   */\n          not\n            /* \"#utility.yul\":7419:7425   */\n          dup5\n            /* \"#utility.yul\":7415:7437   */\n          and\n            /* \"#utility.yul\":7465:7502   */\n          tag_134\n            /* \"#utility.yul\":7497:7501   */\n          dup7\n            /* \"#utility.yul\":7465:7502   */\n          tag_25\n          jump\t// in\n        tag_134:\n            /* \"#utility.yul\":7524:7525   */\n          0x00\n            /* \"#utility.yul\":7538:7746   */\n        tag_135:\n            /* \"#utility.yul\":7552:7559   */\n          dup3\n            /* \"#utility.yul\":7549:7550   */\n          dup2\n            /* \"#utility.yul\":7546:7560   */\n          lt\n            /* \"#utility.yul\":7538:7746   */\n          iszero\n          tag_137\n          jumpi\n            /* \"#utility.yul\":7631:7640   */\n          dup5\n            /* \"#utility.yul\":7626:7629   */\n          dup10\n            /* \"#utility.yul\":7622:7641   */\n          add\n            /* \"#utility.yul\":7616:7642   */\n          mload\n            /* \"#utility.yul\":7608:7614   */\n          dup3\n            /* \"#utility.yul\":7601:7643   */\n          sstore\n            /* \"#utility.yul\":7682:7683   */\n          0x01\n            /* \"#utility.yul\":7674:7680   */\n          dup3\n            /* \"#utility.yul\":7670:7684   */\n          add\n            /* \"#utility.yul\":7660:7684   */\n          swap2\n          pop\n            /* \"#utility.yul\":7729:7731   */\n          0x20\n            /* \"#utility.yul\":7718:7727   */\n          dup6\n            /* \"#utility.yul\":7714:7732   */\n          add\n            /* \"#utility.yul\":7701:7732   */\n          swap5\n          pop\n            /* \"#utility.yul\":7575:7579   */\n          0x20\n            /* \"#utility.yul\":7572:7573   */\n          dup2\n            /* \"#utility.yul\":7568:7580   */\n          add\n            /* \"#utility.yul\":7563:7580   */\n          swap1\n          pop\n            /* \"#utility.yul\":7538:7746   */\n          jump(tag_135)\n        tag_137:\n            /* \"#utility.yul\":7774:7780   */\n          dup7\n            /* \"#utility.yul\":7765:7772   */\n          dup4\n            /* \"#utility.yul\":7762:7781   */\n          lt\n            /* \"#utility.yul\":7759:7938   */\n          iszero\n          tag_138\n          jumpi\n            /* \"#utility.yul\":7832:7841   */\n          dup5\n            /* \"#utility.yul\":7827:7830   */\n          dup10\n            /* \"#utility.yul\":7823:7842   */\n          add\n            /* \"#utility.yul\":7817:7843   */\n          mload\n            /* \"#utility.yul\":7875:7923   */\n          tag_139\n            /* \"#utility.yul\":7917:7921   */\n          0x1f\n            /* \"#utility.yul\":7909:7915   */\n          dup10\n            /* \"#utility.yul\":7905:7922   */\n          and\n            /* \"#utility.yul\":7894:7903   */\n          dup3\n            /* \"#utility.yul\":7875:7923   */\n          tag_39\n          jump\t// in\n        tag_139:\n            /* \"#utility.yul\":7867:7873   */\n          dup4\n            /* \"#utility.yul\":7860:7924   */\n          sstore\n            /* \"#utility.yul\":7782:7938   */\n          pop\n            /* \"#utility.yul\":7759:7938   */\n        tag_138:\n            /* \"#utility.yul\":7984:7985   */\n          0x01\n            /* \"#utility.yul\":7980:7981   */\n          0x02\n            /* \"#utility.yul\":7972:7978   */\n          dup9\n            /* \"#utility.yul\":7968:7982   */\n          mul\n            /* \"#utility.yul\":7964:7986   */\n          add\n            /* \"#utility.yul\":7958:7962   */\n          dup9\n            /* \"#utility.yul\":7951:7987   */\n          sstore\n            /* \"#utility.yul\":7386:7997   */\n          pop\n          pop\n          pop\n            /* \"#utility.yul\":7349:8236   */\n        tag_130:\n          pop\n            /* \"#utility.yul\":6939:8242   */\n          pop\n          pop\n          pop\n            /* \"#utility.yul\":6847:8242   */\n          pop\n          pop\n          jump\t// out\n            /* \"Imooc.sol\":545:656  contract Course {... */\n        tag_8:\n          dataSize(sub_0)\n          dup1\n          dataOffset(sub_0)\n          0x00\n          codecopy\n          0x00\n          return\n        stop\n\n        sub_0: assembly {\n                /* \"Imooc.sol\":545:656  contract Course {... */\n              mstore(0x40, 0x80)\n              callvalue\n              dup1\n              iszero\n              tag_1\n              jumpi\n              0x00\n              dup1\n              revert\n            tag_1:\n              pop\n              jumpi(tag_2, lt(calldatasize, 0x04))\n              shr(0xe0, calldataload(0x00))\n              dup1\n              0x06fdde03\n              eq\n              tag_3\n              jumpi\n            tag_2:\n              0x00\n              dup1\n              revert\n                /* \"Imooc.sol\":567:585  string public name */\n            tag_3:\n              tag_4\n              tag_5\n              jump\t// in\n            tag_4:\n              mload(0x40)\n              tag_6\n              swap2\n              swap1\n              tag_7\n              jump\t// in\n            tag_6:\n              mload(0x40)\n              dup1\n              swap2\n              sub\n              swap1\n              return\n            tag_5:\n              0x00\n              dup1\n              sload\n              tag_8\n              swap1\n              tag_9\n              jump\t// in\n            tag_8:\n              dup1\n              0x1f\n              add\n              0x20\n              dup1\n              swap2\n              div\n              mul\n              0x20\n              add\n              mload(0x40)\n              swap1\n              dup2\n              add\n              0x40\n              mstore\n              dup1\n              swap3\n              swap2\n              swap1\n              dup2\n              dup2\n              mstore\n              0x20\n              add\n              dup3\n              dup1\n              sload\n              tag_10\n              swap1\n              tag_9\n              jump\t// in\n            tag_10:\n              dup1\n              iszero\n              tag_11\n              jumpi\n              dup1\n              0x1f\n              lt\n              tag_12\n              jumpi\n              0x0100\n              dup1\n              dup4\n              sload\n              div\n              mul\n              dup4\n              mstore\n              swap2\n              0x20\n              add\n              swap2\n              jump(tag_11)\n            tag_12:\n              dup3\n              add\n              swap2\n              swap1\n              0x00\n              mstore\n              keccak256(0x00, 0x20)\n              swap1\n            tag_13:\n              dup2\n              sload\n              dup2\n              mstore\n              swap1\n              0x01\n              add\n              swap1\n              0x20\n              add\n              dup1\n              dup4\n              gt\n              tag_13\n              jumpi\n              dup3\n              swap1\n              sub\n              0x1f\n              and\n              dup3\n              add\n              swap2\n            tag_11:\n              pop\n              pop\n              pop\n              pop\n              pop\n              dup2\n              jump\t// out\n                /* \"#utility.yul\":7:106   */\n            tag_14:\n                /* \"#utility.yul\":59:65   */\n              0x00\n                /* \"#utility.yul\":93:98   */\n              dup2\n                /* \"#utility.yul\":87:99   */\n              mload\n                /* \"#utility.yul\":77:99   */\n              swap1\n              pop\n                /* \"#utility.yul\":7:106   */\n              swap2\n              swap1\n              pop\n              jump\t// out\n                /* \"#utility.yul\":112:281   */\n            tag_15:\n                /* \"#utility.yul\":196:207   */\n              0x00\n                /* \"#utility.yul\":230:236   */\n              dup3\n                /* \"#utility.yul\":225:228   */\n              dup3\n                /* \"#utility.yul\":218:237   */\n              mstore\n                /* \"#utility.yul\":270:274   */\n              0x20\n                /* \"#utility.yul\":265:268   */\n              dup3\n                /* \"#utility.yul\":261:275   */\n              add\n                /* \"#utility.yul\":246:275   */\n              swap1\n              pop\n                /* \"#utility.yul\":112:281   */\n              swap3\n              swap2\n              pop\n              pop\n              jump\t// out\n                /* \"#utility.yul\":287:533   */\n            tag_16:\n                /* \"#utility.yul\":368:369   */\n              0x00\n                /* \"#utility.yul\":378:491   */\n            tag_24:\n                /* \"#utility.yul\":392:398   */\n              dup4\n                /* \"#utility.yul\":389:390   */\n              dup2\n                /* \"#utility.yul\":386:399   */\n              lt\n                /* \"#utility.yul\":378:491   */\n              iszero\n              tag_26\n              jumpi\n                /* \"#utility.yul\":477:478   */\n              dup1\n                /* \"#utility.yul\":472:475   */\n              dup3\n                /* \"#utility.yul\":468:479   */\n              add\n                /* \"#utility.yul\":462:480   */\n              mload\n                /* \"#utility.yul\":458:459   */\n              dup2\n                /* \"#utility.yul\":453:456   */\n              dup5\n                /* \"#utility.yul\":449:460   */\n              add\n                /* \"#utility.yul\":442:481   */\n              mstore\n                /* \"#utility.yul\":414:416   */\n              0x20\n                /* \"#utility.yul\":411:412   */\n              dup2\n                /* \"#utility.yul\":407:417   */\n              add\n                /* \"#utility.yul\":402:417   */\n              swap1\n              pop\n                /* \"#utility.yul\":378:491   */\n              jump(tag_24)\n            tag_26:\n                /* \"#utility.yul\":525:526   */\n              0x00\n                /* \"#utility.yul\":516:522   */\n              dup5\n                /* \"#utility.yul\":511:514   */\n              dup5\n                /* \"#utility.yul\":507:523   */\n              add\n                /* \"#utility.yul\":500:527   */\n              mstore\n                /* \"#utility.yul\":349:533   */\n              pop\n                /* \"#utility.yul\":287:533   */\n              pop\n              pop\n              pop\n              jump\t// out\n                /* \"#utility.yul\":539:641   */\n            tag_17:\n                /* \"#utility.yul\":580:586   */\n              0x00\n                /* \"#utility.yul\":631:633   */\n              0x1f\n                /* \"#utility.yul\":627:634   */\n              not\n                /* \"#utility.yul\":622:624   */\n              0x1f\n                /* \"#utility.yul\":615:620   */\n              dup4\n                /* \"#utility.yul\":611:625   */\n              add\n                /* \"#utility.yul\":607:635   */\n              and\n                /* \"#utility.yul\":597:635   */\n              swap1\n              pop\n                /* \"#utility.yul\":539:641   */\n              swap2\n              swap1\n              pop\n              jump\t// out\n                /* \"#utility.yul\":647:1024   */\n            tag_18:\n                /* \"#utility.yul\":735:738   */\n              0x00\n                /* \"#utility.yul\":763:802   */\n              tag_29\n                /* \"#utility.yul\":796:801   */\n              dup3\n                /* \"#utility.yul\":763:802   */\n              tag_14\n              jump\t// in\n            tag_29:\n                /* \"#utility.yul\":818:889   */\n              tag_30\n                /* \"#utility.yul\":882:888   */\n              dup2\n                /* \"#utility.yul\":877:880   */\n              dup6\n                /* \"#utility.yul\":818:889   */\n              tag_15\n              jump\t// in\n            tag_30:\n                /* \"#utility.yul\":811:889   */\n              swap4\n              pop\n                /* \"#utility.yul\":898:963   */\n              tag_31\n                /* \"#utility.yul\":956:962   */\n              dup2\n                /* \"#utility.yul\":951:954   */\n              dup6\n                /* \"#utility.yul\":944:948   */\n              0x20\n                /* \"#utility.yul\":937:942   */\n              dup7\n                /* \"#utility.yul\":933:949   */\n              add\n                /* \"#utility.yul\":898:963   */\n              tag_16\n              jump\t// in\n            tag_31:\n                /* \"#utility.yul\":988:1017   */\n              tag_32\n                /* \"#utility.yul\":1010:1016   */\n              dup2\n                /* \"#utility.yul\":988:1017   */\n              tag_17\n              jump\t// in\n            tag_32:\n                /* \"#utility.yul\":983:986   */\n              dup5\n                /* \"#utility.yul\":979:1018   */\n              add\n                /* \"#utility.yul\":972:1018   */\n              swap2\n              pop\n                /* \"#utility.yul\":739:1024   */\n              pop\n                /* \"#utility.yul\":647:1024   */\n              swap3\n              swap2\n              pop\n              pop\n              jump\t// out\n                /* \"#utility.yul\":1030:1343   */\n            tag_7:\n                /* \"#utility.yul\":1143:1147   */\n              0x00\n                /* \"#utility.yul\":1181:1183   */\n              0x20\n                /* \"#utility.yul\":1170:1179   */\n              dup3\n                /* \"#utility.yul\":1166:1184   */\n              add\n                /* \"#utility.yul\":1158:1184   */\n              swap1\n              pop\n                /* \"#utility.yul\":1230:1239   */\n              dup2\n                /* \"#utility.yul\":1224:1228   */\n              dup2\n                /* \"#utility.yul\":1220:1240   */\n              sub\n                /* \"#utility.yul\":1216:1217   */\n              0x00\n                /* \"#utility.yul\":1205:1214   */\n              dup4\n                /* \"#utility.yul\":1201:1218   */\n              add\n                /* \"#utility.yul\":1194:1241   */\n              mstore\n                /* \"#utility.yul\":1258:1336   */\n              tag_34\n                /* \"#utility.yul\":1331:1335   */\n              dup2\n                /* \"#utility.yul\":1322:1328   */\n              dup5\n                /* \"#utility.yul\":1258:1336   */\n              tag_18\n              jump\t// in\n            tag_34:\n                /* \"#utility.yul\":1250:1336   */\n              swap1\n              pop\n                /* \"#utility.yul\":1030:1343   */\n              swap3\n              swap2\n              pop\n              pop\n              jump\t// out\n                /* \"#utility.yul\":1349:1529   */\n            tag_19:\n                /* \"#utility.yul\":1397:1474   */\n              0x4e487b7100000000000000000000000000000000000000000000000000000000\n                /* \"#utility.yul\":1394:1395   */\n              0x00\n                /* \"#utility.yul\":1387:1475   */\n              mstore\n                /* \"#utility.yul\":1494:1498   */\n              0x22\n                /* \"#utility.yul\":1491:1492   */\n              0x04\n                /* \"#utility.yul\":1484:1499   */\n              mstore\n                /* \"#utility.yul\":1518:1522   */\n              0x24\n                /* \"#utility.yul\":1515:1516   */\n              0x00\n                /* \"#utility.yul\":1508:1523   */\n              revert\n                /* \"#utility.yul\":1535:1855   */\n            tag_9:\n                /* \"#utility.yul\":1579:1585   */\n              0x00\n                /* \"#utility.yul\":1616:1617   */\n              0x02\n                /* \"#utility.yul\":1610:1614   */\n              dup3\n                /* \"#utility.yul\":1606:1618   */\n              div\n                /* \"#utility.yul\":1596:1618   */\n              swap1\n              pop\n                /* \"#utility.yul\":1663:1664   */\n              0x01\n                /* \"#utility.yul\":1657:1661   */\n              dup3\n                /* \"#utility.yul\":1653:1665   */\n              and\n                /* \"#utility.yul\":1684:1702   */\n              dup1\n                /* \"#utility.yul\":1674:1755   */\n              tag_37\n              jumpi\n                /* \"#utility.yul\":1740:1744   */\n              0x7f\n                /* \"#utility.yul\":1732:1738   */\n              dup3\n                /* \"#utility.yul\":1728:1745   */\n              and\n                /* \"#utility.yul\":1718:1745   */\n              swap2\n              pop\n                /* \"#utility.yul\":1674:1755   */\n            tag_37:\n                /* \"#utility.yul\":1802:1804   */\n              0x20\n                /* \"#utility.yul\":1794:1800   */\n              dup3\n                /* \"#utility.yul\":1791:1805   */\n              lt\n                /* \"#utility.yul\":1771:1789   */\n              dup2\n                /* \"#utility.yul\":1768:1806   */\n              sub\n                /* \"#utility.yul\":1765:1849   */\n              tag_38\n              jumpi\n                /* \"#utility.yul\":1821:1839   */\n              tag_39\n              tag_19\n              jump\t// in\n            tag_39:\n                /* \"#utility.yul\":1765:1849   */\n            tag_38:\n                /* \"#utility.yul\":1586:1855   */\n              pop\n                /* \"#utility.yul\":1535:1855   */\n              swap2\n              swap1\n              pop\n              jump\t// out\n\n            auxdata: 0xa26469706673582212206b8559cd9411ff8a25848f312cf70f65ed6134e6f7b75e197b689dbb006b424164736f6c63430008170033\n        }\n    }\n\n    auxdata: 0xa26469706673582212207b790f5d0e3c474aafc6872c6986c7563760889390da7301f60614b5f01d025564736f6c63430008170033\n}\n","bytecode":{"linkReferences":{},"object":"608060405234801561000f575f80fd5b50335f806101000a81548173ffffffffffffffffffffffffffffffffffffffff021916908373ffffffffffffffffffffffffffffffffffffffff160217905550610db88061005c5f395ff3fe608060405234801562000010575f80fd5b506004361062000050575f3560e01c80638a38ab2c14620000545780638c14acd51462000074578063908921fc146200009657806396f979d214620000b8575b5f80fd5b6200007260048036038101906200006c9190620003ee565b620000ee565b005b6200007e6200018b565b6040516200008d919062000536565b60405180910390f35b620000a062000218565b604051620000af919062000569565b60405180910390f35b620000d66004803603810190620000d09190620005bc565b6200023b565b604051620000e5919062000569565b60405180910390f35b5f81604051620000fe9062000277565b6200010a919062000670565b604051809103905ff08015801562000124573d5f803e3d5ffd5b509050600181908060018154018082558091505060019003905f5260205f20015f9091909190916101000a81548173ffffffffffffffffffffffffffffffffffffffff021916908373ffffffffffffffffffffffffffffffffffffffff1602179055505050565b606060018054806020026020016040519081016040528092919081815260200182805480156200020e57602002820191905f5260205f20905b815f9054906101000a900473ffffffffffffffffffffffffffffffffffffffff1673ffffffffffffffffffffffffffffffffffffffff1681526020019060010190808311620001c4575b5050505050905090565b5f8054906101000a900473ffffffffffffffffffffffffffffffffffffffff1681565b600181815481106200024b575f80fd5b905f5260205f20015f915054906101000a900473ffffffffffffffffffffffffffffffffffffffff1681565b6106f0806200069383390190565b5f604051905090565b5f80fd5b5f80fd5b5f80fd5b5f80fd5b5f601f19601f8301169050919050565b7f4e487b71000000000000000000000000000000000000000000000000000000005f52604160045260245ffd5b620002e6826200029e565b810181811067ffffffffffffffff82111715620003085762000307620002ae565b5b80604052505050565b5f6200031c62000285565b90506200032a8282620002db565b919050565b5f67ffffffffffffffff8211156200034c576200034b620002ae565b5b62000357826200029e565b9050602081019050919050565b828183375f83830152505050565b5f6200038862000382846200032f565b62000311565b905082815260208101848484011115620003a757620003a66200029a565b5b620003b484828562000364565b509392505050565b5f82601f830112620003d357620003d262000296565b5b8135620003e584826020860162000372565b91505092915050565b5f602082840312156200040657620004056200028e565b5b5f82013567ffffffffffffffff81111562000426576200042562000292565b5b6200043484828501620003bc565b91505092915050565b5f81519050919050565b5f82825260208201905092915050565b5f819050602082019050919050565b5f73ffffffffffffffffffffffffffffffffffffffff82169050919050565b5f620004918262000466565b9050919050565b620004a38162000485565b82525050565b5f620004b6838362000498565b60208301905092915050565b5f602082019050919050565b5f620004da826200043d565b620004e6818562000447565b9350620004f38362000457565b805f5b83811015620005295781516200050d8882620004a9565b97506200051a83620004c2565b925050600181019050620004f6565b5085935050505092915050565b5f6020820190508181035f830152620005508184620004ce565b905092915050565b620005638162000485565b82525050565b5f6020820190506200057e5f83018462000558565b92915050565b5f819050919050565b620005988162000584565b8114620005a3575f80fd5b50565b5f81359050620005b6816200058d565b92915050565b5f60208284031215620005d457620005d36200028e565b5b5f620005e384828501620005a6565b91505092915050565b5f81519050919050565b5f82825260208201905092915050565b5f5b838110156200062557808201518184015260208101905062000608565b5f8484015250505050565b5f6200063c82620005ec565b620006488185620005f6565b93506200065a81856020860162000606565b62000665816200029e565b840191505092915050565b5f6020820190508181035f8301526200068a818462000630565b90509291505056fe608060405234801561000f575f80fd5b506040516106f03803806106f0833981810160405281019061003191906101ad565b805f908161003f9190610401565b50506104d0565b5f604051905090565b5f80fd5b5f80fd5b5f80fd5b5f80fd5b5f601f19601f8301169050919050565b7f4e487b71000000000000000000000000000000000000000000000000000000005f52604160045260245ffd5b6100a58261005f565b810181811067ffffffffffffffff821117156100c4576100c361006f565b5b80604052505050565b5f6100d6610046565b90506100e2828261009c565b919050565b5f67ffffffffffffffff8211156101015761010061006f565b5b61010a8261005f565b9050602081019050919050565b5f5b83811015610134578082015181840152602081019050610119565b5f8484015250505050565b5f61015161014c846100e7565b6100cd565b90508281526020810184848401111561016d5761016c61005b565b5b610178848285610117565b509392505050565b5f82601f83011261019457610193610057565b5b81516101a484826020860161013f565b91505092915050565b5f602082840312156101c2576101c161004f565b5b5f82015167ffffffffffffffff8111156101df576101de610053565b5b6101eb84828501610180565b91505092915050565b5f81519050919050565b7f4e487b71000000000000000000000000000000000000000000000000000000005f52602260045260245ffd5b5f600282049050600182168061024257607f821691505b602082108103610255576102546101fe565b5b50919050565b5f819050815f5260205f209050919050565b5f6020601f8301049050919050565b5f82821b905092915050565b5f600883026102b77fffffffffffffffffffffffffffffffffffffffffffffffffffffffffffffffff8261027c565b6102c1868361027c565b95508019841693508086168417925050509392505050565b5f819050919050565b5f819050919050565b5f6103056103006102fb846102d9565b6102e2565b6102d9565b9050919050565b5f819050919050565b61031e836102eb565b61033261032a8261030c565b848454610288565b825550505050565b5f90565b61034661033a565b610351818484610315565b505050565b5b81811015610374576103695f8261033e565b600181019050610357565b5050565b601f8211156103b95761038a8161025b565b6103938461026d565b810160208510156103a2578190505b6103b66103ae8561026d565b830182610356565b50505b505050565b5f82821c905092915050565b5f6103d95f19846008026103be565b1980831691505092915050565b5f6103f183836103ca565b9150826002028217905092915050565b61040a826101f4565b67ffffffffffffffff8111156104235761042261006f565b5b61042d825461022b565b610438828285610378565b5f60209050601f831160018114610469575f8415610457578287015190505b61046185826103e6565b8655506104c8565b601f1984166104778661025b565b5f5b8281101561049e57848901518255600182019150602085019450602081019050610479565b868310156104bb57848901516104b7601f8916826103ca565b8355505b6001600288020188555050505b505050505050565b610213806104dd5f395ff3fe608060405234801561000f575f80fd5b5060043610610029575f3560e01c806306fdde031461002d575b5f80fd5b61003561004b565b6040516100429190610160565b60405180910390f35b5f8054610057906101ad565b80601f0160208091040260200160405190810160405280929190818152602001828054610083906101ad565b80156100ce5780601f106100a5576101008083540402835291602001916100ce565b820191905f5260205f20905b8154815290600101906020018083116100b157829003601f168201915b505050505081565b5f81519050919050565b5f82825260208201905092915050565b5f5b8381101561010d5780820151818401526020810190506100f2565b5f8484015250505050565b5f601f19601f8301169050919050565b5f610132826100d6565b61013c81856100e0565b935061014c8185602086016100f0565b61015581610118565b840191505092915050565b5f6020820190508181035f8301526101788184610128565b905092915050565b7f4e487b71000000000000000000000000000000000000000000000000000000005f52602260045260245ffd5b5f60028204905060018216806101c457607f821691505b6020821081036101d7576101d6610180565b5b5091905056fea26469706673582212206b8559cd9411ff8a25848f312cf70f65ed6134e6f7b75e197b689dbb006b424164736f6c63430008170033a26469706673582212207b790f5d0e3c474aafc6872c6986c7563760889390da7301f60614b5f01d025564736f6c63430008170033","opcodes":"PUSH1 0x80 PUSH1 0x40 MSTORE CALLVALUE DUP1 ISZERO PUSH2 0xF JUMPI PUSH0 DUP1 REVERT JUMPDEST POP CALLER PUSH0 DUP1 PUSH2 0x100 EXP DUP2 SLOAD DUP2 PUSH20 0xFFFFFFFFFFFFFFFFFFFFFFFFFFFFFFFFFFFFFFFF MUL NOT AND SWAP1 DUP4 PUSH20 0xFFFFFFFFFFFFFFFFFFFFFFFFFFFFFFFFFFFFFFFF AND MUL OR SWAP1 SSTORE POP PUSH2 0xDB8 DUP1 PUSH2 0x5C PUSH0 CODECOPY PUSH0 RETURN INVALID PUSH1 0x80 PUSH1 0x40 MSTORE CALLVALUE DUP1 ISZERO PUSH3 0x10 JUMPI PUSH0 DUP1 REVERT JUMPDEST POP PUSH1 0x4 CALLDATASIZE LT PUSH3 0x50 JUMPI PUSH0 CALLDATALOAD PUSH1 0xE0 SHR DUP1 PUSH4 0x8A38AB2C EQ PUSH3 0x54 JUMPI DUP1 PUSH4 0x8C14ACD5 EQ PUSH3 0x74 JUMPI DUP1 PUSH4 0x908921FC EQ PUSH3 0x96 JUMPI DUP1 PUSH4 0x96F979D2 EQ PUSH3 0xB8 JUMPI JUMPDEST PUSH0 DUP1 REVERT JUMPDEST PUSH3 0x72 PUSH1 0x4 DUP1 CALLDATASIZE SUB DUP2 ADD SWAP1 PUSH3 0x6C SWAP2 SWAP1 PUSH3 0x3EE JUMP JUMPDEST PUSH3 0xEE JUMP JUMPDEST STOP JUMPDEST PUSH3 0x7E PUSH3 0x18B JUMP JUMPDEST PUSH1 0x40 MLOAD PUSH3 0x8D SWAP2 SWAP1 PUSH3 0x536 JUMP JUMPDEST PUSH1 0x40 MLOAD DUP1 SWAP2 SUB SWAP1 RETURN JUMPDEST PUSH3 0xA0 PUSH3 0x218 JUMP JUMPDEST PUSH1 0x40 MLOAD PUSH3 0xAF SWAP2 SWAP1 PUSH3 0x569 JUMP JUMPDEST PUSH1 0x40 MLOAD DUP1 SWAP2 SUB SWAP1 RETURN JUMPDEST PUSH3 0xD6 PUSH1 0x4 DUP1 CALLDATASIZE SUB DUP2 ADD SWAP1 PUSH3 0xD0 SWAP2 SWAP1 PUSH3 0x5BC JUMP JUMPDEST PUSH3 0x23B JUMP JUMPDEST PUSH1 0x40 MLOAD PUSH3 0xE5 SWAP2 SWAP1 PUSH3 0x569 JUMP JUMPDEST PUSH1 0x40 MLOAD DUP1 SWAP2 SUB SWAP1 RETURN JUMPDEST PUSH0 DUP2 PUSH1 0x40 MLOAD PUSH3 0xFE SWAP1 PUSH3 0x277 JUMP JUMPDEST PUSH3 0x10A SWAP2 SWAP1 PUSH3 0x670 JUMP JUMPDEST PUSH1 0x40 MLOAD DUP1 SWAP2 SUB SWAP1 PUSH0 CREATE DUP1 ISZERO DUP1 ISZERO PUSH3 0x124 JUMPI RETURNDATASIZE PUSH0 DUP1 RETURNDATACOPY RETURNDATASIZE PUSH0 REVERT JUMPDEST POP SWAP1 POP PUSH1 0x1 DUP2 SWAP1 DUP1 PUSH1 0x1 DUP2 SLOAD ADD DUP1 DUP3 SSTORE DUP1 SWAP2 POP POP PUSH1 0x1 SWAP1 SUB SWAP1 PUSH0 MSTORE PUSH1 0x20 PUSH0 KECCAK256 ADD PUSH0 SWAP1 SWAP2 SWAP1 SWAP2 SWAP1 SWAP2 PUSH2 0x100 EXP DUP2 SLOAD DUP2 PUSH20 0xFFFFFFFFFFFFFFFFFFFFFFFFFFFFFFFFFFFFFFFF MUL NOT AND SWAP1 DUP4 PUSH20 0xFFFFFFFFFFFFFFFFFFFFFFFFFFFFFFFFFFFFFFFF AND MUL OR SWAP1 SSTORE POP POP POP JUMP JUMPDEST PUSH1 0x60 PUSH1 0x1 DUP1 SLOAD DUP1 PUSH1 0x20 MUL PUSH1 0x20 ADD PUSH1 0x40 MLOAD SWAP1 DUP2 ADD PUSH1 0x40 MSTORE DUP1 SWAP3 SWAP2 SWAP1 DUP2 DUP2 MSTORE PUSH1 0x20 ADD DUP3 DUP1 SLOAD DUP1 ISZERO PUSH3 0x20E JUMPI PUSH1 0x20 MUL DUP3 ADD SWAP2 SWAP1 PUSH0 MSTORE PUSH1 0x20 PUSH0 KECCAK256 SWAP1 JUMPDEST DUP2 PUSH0 SWAP1 SLOAD SWAP1 PUSH2 0x100 EXP SWAP1 DIV PUSH20 0xFFFFFFFFFFFFFFFFFFFFFFFFFFFFFFFFFFFFFFFF AND PUSH20 0xFFFFFFFFFFFFFFFFFFFFFFFFFFFFFFFFFFFFFFFF AND DUP2 MSTORE PUSH1 0x20 ADD SWAP1 PUSH1 0x1 ADD SWAP1 DUP1 DUP4 GT PUSH3 0x1C4 JUMPI JUMPDEST POP POP POP POP POP SWAP1 POP SWAP1 JUMP JUMPDEST PUSH0 DUP1 SLOAD SWAP1 PUSH2 0x100 EXP SWAP1 DIV PUSH20 0xFFFFFFFFFFFFFFFFFFFFFFFFFFFFFFFFFFFFFFFF AND DUP2 JUMP JUMPDEST PUSH1 0x1 DUP2 DUP2 SLOAD DUP2 LT PUSH3 0x24B JUMPI PUSH0 DUP1 REVERT JUMPDEST SWAP1 PUSH0 MSTORE PUSH1 0x20 PUSH0 KECCAK256 ADD PUSH0 SWAP2 POP SLOAD SWAP1 PUSH2 0x100 EXP SWAP1 DIV PUSH20 0xFFFFFFFFFFFFFFFFFFFFFFFFFFFFFFFFFFFFFFFF AND DUP2 JUMP JUMPDEST PUSH2 0x6F0 DUP1 PUSH3 0x693 DUP4 CODECOPY ADD SWAP1 JUMP JUMPDEST PUSH0 PUSH1 0x40 MLOAD SWAP1 POP SWAP1 JUMP JUMPDEST PUSH0 DUP1 REVERT JUMPDEST PUSH0 DUP1 REVERT JUMPDEST PUSH0 DUP1 REVERT JUMPDEST PUSH0 DUP1 REVERT JUMPDEST PUSH0 PUSH1 0x1F NOT PUSH1 0x1F DUP4 ADD AND SWAP1 POP SWAP2 SWAP1 POP JUMP JUMPDEST PUSH32 0x4E487B7100000000000000000000000000000000000000000000000000000000 PUSH0 MSTORE PUSH1 0x41 PUSH1 0x4 MSTORE PUSH1 0x24 PUSH0 REVERT JUMPDEST PUSH3 0x2E6 DUP3 PUSH3 0x29E JUMP JUMPDEST DUP2 ADD DUP2 DUP2 LT PUSH8 0xFFFFFFFFFFFFFFFF DUP3 GT OR ISZERO PUSH3 0x308 JUMPI PUSH3 0x307 PUSH3 0x2AE JUMP JUMPDEST JUMPDEST DUP1 PUSH1 0x40 MSTORE POP POP POP JUMP JUMPDEST PUSH0 PUSH3 0x31C PUSH3 0x285 JUMP JUMPDEST SWAP1 POP PUSH3 0x32A DUP3 DUP3 PUSH3 0x2DB JUMP JUMPDEST SWAP2 SWAP1 POP JUMP JUMPDEST PUSH0 PUSH8 0xFFFFFFFFFFFFFFFF DUP3 GT ISZERO PUSH3 0x34C JUMPI PUSH3 0x34B PUSH3 0x2AE JUMP JUMPDEST JUMPDEST PUSH3 0x357 DUP3 PUSH3 0x29E JUMP JUMPDEST SWAP1 POP PUSH1 0x20 DUP2 ADD SWAP1 POP SWAP2 SWAP1 POP JUMP JUMPDEST DUP3 DUP2 DUP4 CALLDATACOPY PUSH0 DUP4 DUP4 ADD MSTORE POP POP POP JUMP JUMPDEST PUSH0 PUSH3 0x388 PUSH3 0x382 DUP5 PUSH3 0x32F JUMP JUMPDEST PUSH3 0x311 JUMP JUMPDEST SWAP1 POP DUP3 DUP2 MSTORE PUSH1 0x20 DUP2 ADD DUP5 DUP5 DUP5 ADD GT ISZERO PUSH3 0x3A7 JUMPI PUSH3 0x3A6 PUSH3 0x29A JUMP JUMPDEST JUMPDEST PUSH3 0x3B4 DUP5 DUP3 DUP6 PUSH3 0x364 JUMP JUMPDEST POP SWAP4 SWAP3 POP POP POP JUMP JUMPDEST PUSH0 DUP3 PUSH1 0x1F DUP4 ADD SLT PUSH3 0x3D3 JUMPI PUSH3 0x3D2 PUSH3 0x296 JUMP JUMPDEST JUMPDEST DUP2 CALLDATALOAD PUSH3 0x3E5 DUP5 DUP3 PUSH1 0x20 DUP7 ADD PUSH3 0x372 JUMP JUMPDEST SWAP2 POP POP SWAP3 SWAP2 POP POP JUMP JUMPDEST PUSH0 PUSH1 0x20 DUP3 DUP5 SUB SLT ISZERO PUSH3 0x406 JUMPI PUSH3 0x405 PUSH3 0x28E JUMP JUMPDEST JUMPDEST PUSH0 DUP3 ADD CALLDATALOAD PUSH8 0xFFFFFFFFFFFFFFFF DUP2 GT ISZERO PUSH3 0x426 JUMPI PUSH3 0x425 PUSH3 0x292 JUMP JUMPDEST JUMPDEST PUSH3 0x434 DUP5 DUP3 DUP6 ADD PUSH3 0x3BC JUMP JUMPDEST SWAP2 POP POP SWAP3 SWAP2 POP POP JUMP JUMPDEST PUSH0 DUP2 MLOAD SWAP1 POP SWAP2 SWAP1 POP JUMP JUMPDEST PUSH0 DUP3 DUP3 MSTORE PUSH1 0x20 DUP3 ADD SWAP1 POP SWAP3 SWAP2 POP POP JUMP JUMPDEST PUSH0 DUP2 SWAP1 POP PUSH1 0x20 DUP3 ADD SWAP1 POP SWAP2 SWAP1 POP JUMP JUMPDEST PUSH0 PUSH20 0xFFFFFFFFFFFFFFFFFFFFFFFFFFFFFFFFFFFFFFFF DUP3 AND SWAP1 POP SWAP2 SWAP1 POP JUMP JUMPDEST PUSH0 PUSH3 0x491 DUP3 PUSH3 0x466 JUMP JUMPDEST SWAP1 POP SWAP2 SWAP1 POP JUMP JUMPDEST PUSH3 0x4A3 DUP2 PUSH3 0x485 JUMP JUMPDEST DUP3 MSTORE POP POP JUMP JUMPDEST PUSH0 PUSH3 0x4B6 DUP4 DUP4 PUSH3 0x498 JUMP JUMPDEST PUSH1 0x20 DUP4 ADD SWAP1 POP SWAP3 SWAP2 POP POP JUMP JUMPDEST PUSH0 PUSH1 0x20 DUP3 ADD SWAP1 POP SWAP2 SWAP1 POP JUMP JUMPDEST PUSH0 PUSH3 0x4DA DUP3 PUSH3 0x43D JUMP JUMPDEST PUSH3 0x4E6 DUP2 DUP6 PUSH3 0x447 JUMP JUMPDEST SWAP4 POP PUSH3 0x4F3 DUP4 PUSH3 0x457 JUMP JUMPDEST DUP1 PUSH0 JUMPDEST DUP4 DUP2 LT ISZERO PUSH3 0x529 JUMPI DUP2 MLOAD PUSH3 0x50D DUP9 DUP3 PUSH3 0x4A9 JUMP JUMPDEST SWAP8 POP PUSH3 0x51A DUP4 PUSH3 0x4C2 JUMP JUMPDEST SWAP3 POP POP PUSH1 0x1 DUP2 ADD SWAP1 POP PUSH3 0x4F6 JUMP JUMPDEST POP DUP6 SWAP4 POP POP POP POP SWAP3 SWAP2 POP POP JUMP JUMPDEST PUSH0 PUSH1 0x20 DUP3 ADD SWAP1 POP DUP2 DUP2 SUB PUSH0 DUP4 ADD MSTORE PUSH3 0x550 DUP2 DUP5 PUSH3 0x4CE JUMP JUMPDEST SWAP1 POP SWAP3 SWAP2 POP POP JUMP JUMPDEST PUSH3 0x563 DUP2 PUSH3 0x485 JUMP JUMPDEST DUP3 MSTORE POP POP JUMP JUMPDEST PUSH0 PUSH1 0x20 DUP3 ADD SWAP1 POP PUSH3 0x57E PUSH0 DUP4 ADD DUP5 PUSH3 0x558 JUMP JUMPDEST SWAP3 SWAP2 POP POP JUMP JUMPDEST PUSH0 DUP2 SWAP1 POP SWAP2 SWAP1 POP JUMP JUMPDEST PUSH3 0x598 DUP2 PUSH3 0x584 JUMP JUMPDEST DUP2 EQ PUSH3 0x5A3 JUMPI PUSH0 DUP1 REVERT JUMPDEST POP JUMP JUMPDEST PUSH0 DUP2 CALLDATALOAD SWAP1 POP PUSH3 0x5B6 DUP2 PUSH3 0x58D JUMP JUMPDEST SWAP3 SWAP2 POP POP JUMP JUMPDEST PUSH0 PUSH1 0x20 DUP3 DUP5 SUB SLT ISZERO PUSH3 0x5D4 JUMPI PUSH3 0x5D3 PUSH3 0x28E JUMP JUMPDEST JUMPDEST PUSH0 PUSH3 0x5E3 DUP5 DUP3 DUP6 ADD PUSH3 0x5A6 JUMP JUMPDEST SWAP2 POP POP SWAP3 SWAP2 POP POP JUMP JUMPDEST PUSH0 DUP2 MLOAD SWAP1 POP SWAP2 SWAP1 POP JUMP JUMPDEST PUSH0 DUP3 DUP3 MSTORE PUSH1 0x20 DUP3 ADD SWAP1 POP SWAP3 SWAP2 POP POP JUMP JUMPDEST PUSH0 JUMPDEST DUP4 DUP2 LT ISZERO PUSH3 0x625 JUMPI DUP1 DUP3 ADD MLOAD DUP2 DUP5 ADD MSTORE PUSH1 0x20 DUP2 ADD SWAP1 POP PUSH3 0x608 JUMP JUMPDEST PUSH0 DUP5 DUP5 ADD MSTORE POP POP POP POP JUMP JUMPDEST PUSH0 PUSH3 0x63C DUP3 PUSH3 0x5EC JUMP JUMPDEST PUSH3 0x648 DUP2 DUP6 PUSH3 0x5F6 JUMP JUMPDEST SWAP4 POP PUSH3 0x65A DUP2 DUP6 PUSH1 0x20 DUP7 ADD PUSH3 0x606 JUMP JUMPDEST PUSH3 0x665 DUP2 PUSH3 0x29E JUMP JUMPDEST DUP5 ADD SWAP2 POP POP SWAP3 SWAP2 POP POP JUMP JUMPDEST PUSH0 PUSH1 0x20 DUP3 ADD SWAP1 POP DUP2 DUP2 SUB PUSH0 DUP4 ADD MSTORE PUSH3 0x68A DUP2 DUP5 PUSH3 0x630 JUMP JUMPDEST SWAP1 POP SWAP3 SWAP2 POP POP JUMP INVALID PUSH1 0x80 PUSH1 0x40 MSTORE CALLVALUE DUP1 ISZERO PUSH2 0xF JUMPI PUSH0 DUP1 REVERT JUMPDEST POP PUSH1 0x40 MLOAD PUSH2 0x6F0 CODESIZE SUB DUP1 PUSH2 0x6F0 DUP4 CODECOPY DUP2 DUP2 ADD PUSH1 0x40 MSTORE DUP2 ADD SWAP1 PUSH2 0x31 SWAP2 SWAP1 PUSH2 0x1AD JUMP JUMPDEST DUP1 PUSH0 SWAP1 DUP2 PUSH2 0x3F SWAP2 SWAP1 PUSH2 0x401 JUMP JUMPDEST POP POP PUSH2 0x4D0 JUMP JUMPDEST PUSH0 PUSH1 0x40 MLOAD SWAP1 POP SWAP1 JUMP JUMPDEST PUSH0 DUP1 REVERT JUMPDEST PUSH0 DUP1 REVERT JUMPDEST PUSH0 DUP1 REVERT JUMPDEST PUSH0 DUP1 REVERT JUMPDEST PUSH0 PUSH1 0x1F NOT PUSH1 0x1F DUP4 ADD AND SWAP1 POP SWAP2 SWAP1 POP JUMP JUMPDEST PUSH32 0x4E487B7100000000000000000000000000000000000000000000000000000000 PUSH0 MSTORE PUSH1 0x41 PUSH1 0x4 MSTORE PUSH1 0x24 PUSH0 REVERT JUMPDEST PUSH2 0xA5 DUP3 PUSH2 0x5F JUMP JUMPDEST DUP2 ADD DUP2 DUP2 LT PUSH8 0xFFFFFFFFFFFFFFFF DUP3 GT OR ISZERO PUSH2 0xC4 JUMPI PUSH2 0xC3 PUSH2 0x6F JUMP JUMPDEST JUMPDEST DUP1 PUSH1 0x40 MSTORE POP POP POP JUMP JUMPDEST PUSH0 PUSH2 0xD6 PUSH2 0x46 JUMP JUMPDEST SWAP1 POP PUSH2 0xE2 DUP3 DUP3 PUSH2 0x9C JUMP JUMPDEST SWAP2 SWAP1 POP JUMP JUMPDEST PUSH0 PUSH8 0xFFFFFFFFFFFFFFFF DUP3 GT ISZERO PUSH2 0x101 JUMPI PUSH2 0x100 PUSH2 0x6F JUMP JUMPDEST JUMPDEST PUSH2 0x10A DUP3 PUSH2 0x5F JUMP JUMPDEST SWAP1 POP PUSH1 0x20 DUP2 ADD SWAP1 POP SWAP2 SWAP1 POP JUMP JUMPDEST PUSH0 JUMPDEST DUP4 DUP2 LT ISZERO PUSH2 0x134 JUMPI DUP1 DUP3 ADD MLOAD DUP2 DUP5 ADD MSTORE PUSH1 0x20 DUP2 ADD SWAP1 POP PUSH2 0x119 JUMP JUMPDEST PUSH0 DUP5 DUP5 ADD MSTORE POP POP POP POP JUMP JUMPDEST PUSH0 PUSH2 0x151 PUSH2 0x14C DUP5 PUSH2 0xE7 JUMP JUMPDEST PUSH2 0xCD JUMP JUMPDEST SWAP1 POP DUP3 DUP2 MSTORE PUSH1 0x20 DUP2 ADD DUP5 DUP5 DUP5 ADD GT ISZERO PUSH2 0x16D JUMPI PUSH2 0x16C PUSH2 0x5B JUMP JUMPDEST JUMPDEST PUSH2 0x178 DUP5 DUP3 DUP6 PUSH2 0x117 JUMP JUMPDEST POP SWAP4 SWAP3 POP POP POP JUMP JUMPDEST PUSH0 DUP3 PUSH1 0x1F DUP4 ADD SLT PUSH2 0x194 JUMPI PUSH2 0x193 PUSH2 0x57 JUMP JUMPDEST JUMPDEST DUP2 MLOAD PUSH2 0x1A4 DUP5 DUP3 PUSH1 0x20 DUP7 ADD PUSH2 0x13F JUMP JUMPDEST SWAP2 POP POP SWAP3 SWAP2 POP POP JUMP JUMPDEST PUSH0 PUSH1 0x20 DUP3 DUP5 SUB SLT ISZERO PUSH2 0x1C2 JUMPI PUSH2 0x1C1 PUSH2 0x4F JUMP JUMPDEST JUMPDEST PUSH0 DUP3 ADD MLOAD PUSH8 0xFFFFFFFFFFFFFFFF DUP2 GT ISZERO PUSH2 0x1DF JUMPI PUSH2 0x1DE PUSH2 0x53 JUMP JUMPDEST JUMPDEST PUSH2 0x1EB DUP5 DUP3 DUP6 ADD PUSH2 0x180 JUMP JUMPDEST SWAP2 POP POP SWAP3 SWAP2 POP POP JUMP JUMPDEST PUSH0 DUP2 MLOAD SWAP1 POP SWAP2 SWAP1 POP JUMP JUMPDEST PUSH32 0x4E487B7100000000000000000000000000000000000000000000000000000000 PUSH0 MSTORE PUSH1 0x22 PUSH1 0x4 MSTORE PUSH1 0x24 PUSH0 REVERT JUMPDEST PUSH0 PUSH1 0x2 DUP3 DIV SWAP1 POP PUSH1 0x1 DUP3 AND DUP1 PUSH2 0x242 JUMPI PUSH1 0x7F DUP3 AND SWAP2 POP JUMPDEST PUSH1 0x20 DUP3 LT DUP2 SUB PUSH2 0x255 JUMPI PUSH2 0x254 PUSH2 0x1FE JUMP JUMPDEST JUMPDEST POP SWAP2 SWAP1 POP JUMP JUMPDEST PUSH0 DUP2 SWAP1 POP DUP2 PUSH0 MSTORE PUSH1 0x20 PUSH0 KECCAK256 SWAP1 POP SWAP2 SWAP1 POP JUMP JUMPDEST PUSH0 PUSH1 0x20 PUSH1 0x1F DUP4 ADD DIV SWAP1 POP SWAP2 SWAP1 POP JUMP JUMPDEST PUSH0 DUP3 DUP3 SHL SWAP1 POP SWAP3 SWAP2 POP POP JUMP JUMPDEST PUSH0 PUSH1 0x8 DUP4 MUL PUSH2 0x2B7 PUSH32 0xFFFFFFFFFFFFFFFFFFFFFFFFFFFFFFFFFFFFFFFFFFFFFFFFFFFFFFFFFFFFFFFF DUP3 PUSH2 0x27C JUMP JUMPDEST PUSH2 0x2C1 DUP7 DUP4 PUSH2 0x27C JUMP JUMPDEST SWAP6 POP DUP1 NOT DUP5 AND SWAP4 POP DUP1 DUP7 AND DUP5 OR SWAP3 POP POP POP SWAP4 SWAP3 POP POP POP JUMP JUMPDEST PUSH0 DUP2 SWAP1 POP SWAP2 SWAP1 POP JUMP JUMPDEST PUSH0 DUP2 SWAP1 POP SWAP2 SWAP1 POP JUMP JUMPDEST PUSH0 PUSH2 0x305 PUSH2 0x300 PUSH2 0x2FB DUP5 PUSH2 0x2D9 JUMP JUMPDEST PUSH2 0x2E2 JUMP JUMPDEST PUSH2 0x2D9 JUMP JUMPDEST SWAP1 POP SWAP2 SWAP1 POP JUMP JUMPDEST PUSH0 DUP2 SWAP1 POP SWAP2 SWAP1 POP JUMP JUMPDEST PUSH2 0x31E DUP4 PUSH2 0x2EB JUMP JUMPDEST PUSH2 0x332 PUSH2 0x32A DUP3 PUSH2 0x30C JUMP JUMPDEST DUP5 DUP5 SLOAD PUSH2 0x288 JUMP JUMPDEST DUP3 SSTORE POP POP POP POP JUMP JUMPDEST PUSH0 SWAP1 JUMP JUMPDEST PUSH2 0x346 PUSH2 0x33A JUMP JUMPDEST PUSH2 0x351 DUP2 DUP5 DUP5 PUSH2 0x315 JUMP JUMPDEST POP POP POP JUMP JUMPDEST JUMPDEST DUP2 DUP2 LT ISZERO PUSH2 0x374 JUMPI PUSH2 0x369 PUSH0 DUP3 PUSH2 0x33E JUMP JUMPDEST PUSH1 0x1 DUP2 ADD SWAP1 POP PUSH2 0x357 JUMP JUMPDEST POP POP JUMP JUMPDEST PUSH1 0x1F DUP3 GT ISZERO PUSH2 0x3B9 JUMPI PUSH2 0x38A DUP2 PUSH2 0x25B JUMP JUMPDEST PUSH2 0x393 DUP5 PUSH2 0x26D JUMP JUMPDEST DUP2 ADD PUSH1 0x20 DUP6 LT ISZERO PUSH2 0x3A2 JUMPI DUP2 SWAP1 POP JUMPDEST PUSH2 0x3B6 PUSH2 0x3AE DUP6 PUSH2 0x26D JUMP JUMPDEST DUP4 ADD DUP3 PUSH2 0x356 JUMP JUMPDEST POP POP JUMPDEST POP POP POP JUMP JUMPDEST PUSH0 DUP3 DUP3 SHR SWAP1 POP SWAP3 SWAP2 POP POP JUMP JUMPDEST PUSH0 PUSH2 0x3D9 PUSH0 NOT DUP5 PUSH1 0x8 MUL PUSH2 0x3BE JUMP JUMPDEST NOT DUP1 DUP4 AND SWAP2 POP POP SWAP3 SWAP2 POP POP JUMP JUMPDEST PUSH0 PUSH2 0x3F1 DUP4 DUP4 PUSH2 0x3CA JUMP JUMPDEST SWAP2 POP DUP3 PUSH1 0x2 MUL DUP3 OR SWAP1 POP SWAP3 SWAP2 POP POP JUMP JUMPDEST PUSH2 0x40A DUP3 PUSH2 0x1F4 JUMP JUMPDEST PUSH8 0xFFFFFFFFFFFFFFFF DUP2 GT ISZERO PUSH2 0x423 JUMPI PUSH2 0x422 PUSH2 0x6F JUMP JUMPDEST JUMPDEST PUSH2 0x42D DUP3 SLOAD PUSH2 0x22B JUMP JUMPDEST PUSH2 0x438 DUP3 DUP3 DUP6 PUSH2 0x378 JUMP JUMPDEST PUSH0 PUSH1 0x20 SWAP1 POP PUSH1 0x1F DUP4 GT PUSH1 0x1 DUP2 EQ PUSH2 0x469 JUMPI PUSH0 DUP5 ISZERO PUSH2 0x457 JUMPI DUP3 DUP8 ADD MLOAD SWAP1 POP JUMPDEST PUSH2 0x461 DUP6 DUP3 PUSH2 0x3E6 JUMP JUMPDEST DUP7 SSTORE POP PUSH2 0x4C8 JUMP JUMPDEST PUSH1 0x1F NOT DUP5 AND PUSH2 0x477 DUP7 PUSH2 0x25B JUMP JUMPDEST PUSH0 JUMPDEST DUP3 DUP2 LT ISZERO PUSH2 0x49E JUMPI DUP5 DUP10 ADD MLOAD DUP3 SSTORE PUSH1 0x1 DUP3 ADD SWAP2 POP PUSH1 0x20 DUP6 ADD SWAP5 POP PUSH1 0x20 DUP2 ADD SWAP1 POP PUSH2 0x479 JUMP JUMPDEST DUP7 DUP4 LT ISZERO PUSH2 0x4BB JUMPI DUP5 DUP10 ADD MLOAD PUSH2 0x4B7 PUSH1 0x1F DUP10 AND DUP3 PUSH2 0x3CA JUMP JUMPDEST DUP4 SSTORE POP JUMPDEST PUSH1 0x1 PUSH1 0x2 DUP9 MUL ADD DUP9 SSTORE POP POP POP JUMPDEST POP POP POP POP POP POP JUMP JUMPDEST PUSH2 0x213 DUP1 PUSH2 0x4DD PUSH0 CODECOPY PUSH0 RETURN INVALID PUSH1 0x80 PUSH1 0x40 MSTORE CALLVALUE DUP1 ISZERO PUSH2 0xF JUMPI PUSH0 DUP1 REVERT JUMPDEST POP PUSH1 0x4 CALLDATASIZE LT PUSH2 0x29 JUMPI PUSH0 CALLDATALOAD PUSH1 0xE0 SHR DUP1 PUSH4 0x6FDDE03 EQ PUSH2 0x2D JUMPI JUMPDEST PUSH0 DUP1 REVERT JUMPDEST PUSH2 0x35 PUSH2 0x4B JUMP JUMPDEST PUSH1 0x40 MLOAD PUSH2 0x42 SWAP2 SWAP1 PUSH2 0x160 JUMP JUMPDEST PUSH1 0x40 MLOAD DUP1 SWAP2 SUB SWAP1 RETURN JUMPDEST PUSH0 DUP1 SLOAD PUSH2 0x57 SWAP1 PUSH2 0x1AD JUMP JUMPDEST DUP1 PUSH1 0x1F ADD PUSH1 0x20 DUP1 SWAP2 DIV MUL PUSH1 0x20 ADD PUSH1 0x40 MLOAD SWAP1 DUP2 ADD PUSH1 0x40 MSTORE DUP1 SWAP3 SWAP2 SWAP1 DUP2 DUP2 MSTORE PUSH1 0x20 ADD DUP3 DUP1 SLOAD PUSH2 0x83 SWAP1 PUSH2 0x1AD JUMP JUMPDEST DUP1 ISZERO PUSH2 0xCE JUMPI DUP1 PUSH1 0x1F LT PUSH2 0xA5 JUMPI PUSH2 0x100 DUP1 DUP4 SLOAD DIV MUL DUP4 MSTORE SWAP2 PUSH1 0x20 ADD SWAP2 PUSH2 0xCE JUMP JUMPDEST DUP3 ADD SWAP2 SWAP1 PUSH0 MSTORE PUSH1 0x20 PUSH0 KECCAK256 SWAP1 JUMPDEST DUP2 SLOAD DUP2 MSTORE SWAP1 PUSH1 0x1 ADD SWAP1 PUSH1 0x20 ADD DUP1 DUP4 GT PUSH2 0xB1 JUMPI DUP3 SWAP1 SUB PUSH1 0x1F AND DUP3 ADD SWAP2 JUMPDEST POP POP POP POP POP DUP2 JUMP JUMPDEST PUSH0 DUP2 MLOAD SWAP1 POP SWAP2 SWAP1 POP JUMP JUMPDEST PUSH0 DUP3 DUP3 MSTORE PUSH1 0x20 DUP3 ADD SWAP1 POP SWAP3 SWAP2 POP POP JUMP JUMPDEST PUSH0 JUMPDEST DUP4 DUP2 LT ISZERO PUSH2 0x10D JUMPI DUP1 DUP3 ADD MLOAD DUP2 DUP5 ADD MSTORE PUSH1 0x20 DUP2 ADD SWAP1 POP PUSH2 0xF2 JUMP JUMPDEST PUSH0 DUP5 DUP5 ADD MSTORE POP POP POP POP JUMP JUMPDEST PUSH0 PUSH1 0x1F NOT PUSH1 0x1F DUP4 ADD AND SWAP1 POP SWAP2 SWAP1 POP JUMP JUMPDEST PUSH0 PUSH2 0x132 DUP3 PUSH2 0xD6 JUMP JUMPDEST PUSH2 0x13C DUP2 DUP6 PUSH2 0xE0 JUMP JUMPDEST SWAP4 POP PUSH2 0x14C DUP2 DUP6 PUSH1 0x20 DUP7 ADD PUSH2 0xF0 JUMP JUMPDEST PUSH2 0x155 DUP2 PUSH2 0x118 JUMP JUMPDEST DUP5 ADD SWAP2 POP POP SWAP3 SWAP2 POP POP JUMP JUMPDEST PUSH0 PUSH1 0x20 DUP3 ADD SWAP1 POP DUP2 DUP2 SUB PUSH0 DUP4 ADD MSTORE PUSH2 0x178 DUP2 DUP5 PUSH2 0x128 JUMP JUMPDEST SWAP1 POP SWAP3 SWAP2 POP POP JUMP JUMPDEST PUSH32 0x4E487B7100000000000000000000000000000000000000000000000000000000 PUSH0 MSTORE PUSH1 0x22 PUSH1 0x4 MSTORE PUSH1 0x24 PUSH0 REVERT JUMPDEST PUSH0 PUSH1 0x2 DUP3 DIV SWAP1 POP PUSH1 0x1 DUP3 AND DUP1 PUSH2 0x1C4 JUMPI PUSH1 0x7F DUP3 AND SWAP2 POP JUMPDEST PUSH1 0x20 DUP3 LT DUP2 SUB PUSH2 0x1D7 JUMPI PUSH2 0x1D6 PUSH2 0x180 JUMP JUMPDEST JUMPDEST POP SWAP2 SWAP1 POP JUMP INVALID LOG2 PUSH5 0x6970667358 0x22 SLT KECCAK256 PUSH12 0x8559CD9411FF8A25848F312C 0xF7 0xF PUSH6 0xED6134E6F7B7 0x5E NOT PUSH28 0x689DBB006B424164736F6C63430008170033A2646970667358221220 PUSH28 0x790F5D0E3C474AAFC6872C6986C7563760889390DA7301F60614B5F0 SAR MUL SSTORE PUSH5 0x736F6C6343 STOP ADDMOD OR STOP CALLER "},"gasEstimates":{"creation":{"codeDepositCost":"702400","executionCost":"24997","totalCost":"727397"},"external":{"ceo()":"2527","courses(uint256)":"4988","createCourse(string)":"infinite","getCourse()":"infinite"}},"methodIdentifiers":{"ceo()":"908921fc","courses(uint256)":"96f979d2","createCourse(string)":"8a38ab2c","getCourse()":"8c14acd5"}},"storageLayout":{"storage":[{"astId":3,"contract":"Imooc.sol:CourseList","label":"ceo","offset":0,"slot":"0","type":"t_address"},{"astId":6,"contract":"Imooc.sol:CourseList","label":"courses","offset":0,"slot":"1","type":"t_array(t_address)dyn_storage"}],"types":{"t_address":{"encoding":"inplace","label":"address","numberOfBytes":"20"},"t_array(t_address)dyn_storage":{"base":"t_address","encoding":"dynamic_array","label":"address[]","numberOfBytes":"32"}}},"userdoc":{"kind":"user","methods":{},"version":1}}